:020000040800F2
:1000000078040020C1010008FD2E00088B100008B4
:10001000F92E0008F1020008693100080000000014
:10002000000000000000000000000000032F000896
:10003000F502000800000000012F000885300008CC
:10004000DB010008DB010008DB010008DB01000820
:10005000DB010008DB010008DB010008DB01000810
:10006000DB010008DB010008DB010008DB01000800
:10007000DB010008DB010008DB010008DB010008F0
:10008000DB010008DB010008DB010008DB010008E0
:10009000DB010008DB010008DB010008DB010008D0
:1000A000DB010008DB010008DB010008DB010008C0
:1000B000DB010008DB010008DB010008DB010008B0
:1000C000DB010008DB010008DB010008DB010008A0
:1000D000DB010008DB010008DB010008DB01000890
:1000E000DB010008DB010008DB010008DB01000880
:1000F000DB010008DB010008DB010008DB01000870
:10010000DB010008DB010008DB010008DB0100085F
:10011000DB010008DB010008DB010008DB0100084F
:10012000DB010008DB010008DB010008DB0100083F
:10013000DB010008DB010008DB010008DB0100082F
:10014000DB010008DB010008DB010008DB0100081F
:10015000DB010008DB010008DB010008DB0100080F
:10016000DB010008DB010008DB010008DB010008FF
:10017000DB010008DB010008DB01000800000000D3
:10018000DB010008DB010008DB010008DB010008DF
:10019000DB010008DB010008DB010008DB010008CF
:1001A000DB010008DB010008DB010008DFF80CD0F0
:1001B00000F08CF800480047313200087804002035
:1001C0000648804706480047FEE7FEE7FEE7FEE7F1
:1001D000FEE7FEE7FEE7FEE7FEE7FEE74D3100083B
:1001E000AD0100082DE9F05F0546002092469B46D0
:1001F00088460646814640241BE02846414647463D
:10020000224600F053F853465A46C01A914110D383
:1002100011461846224600F03AF82D1A67EB0108FD
:100220004F4622460120002100F031F817EB00096B
:100230004E41201EA4F10104DFDC484631462A4627
:100240004346BDE8F09F40EA01039B0703D009E065
:1002500008C9121F08C0042AFAD203E011F8013BB2
:1002600000F8013B521EF9D27047D2B201E000F80B
:10027000012B491EFBD270470022F6E710B513464A
:100280000A4604461946FFF7F0FF204610BD202A13
:1002900004DB203A00FA02F1002070479140C2F1DD
:1002A000200320FA03F3194390407047202A04DB0F
:1002B000203A21FA02F00021704721FA02F3D040DF
:1002C000C2F120029140084319467047064C074D81
:1002D00006E0E06840F0010394E807009847103416
:1002E000AC42F6D3FFF766FFF86D0008186E000801
:1002F00000BFFEE7704772B600BFFEE770B5044668
:100300001D460023B5F5804F13D154F822300C4818
:100310000340D1E9000640EA06108E6840EA062054
:100320008E8940EA06408E693043034344F8223008
:1003300003E06FF0704044F82200002070BD000020
:100340000000F0CF10B502460023086852F82030B4
:1003500018480340D1E901042043CC6820430C69CC
:1003600020434C6920438C692043CC6920430C6AAC
:1003700020434C6A20438C6A2043CC6A2043CC6BD8
:1003800020430C6B20434C6B2043034388680828B0
:1003900001D143F04003086842F82030486BB0F5C3
:1003A000801F05D1086818B110684C6B204310609D
:1003B000002010BD8000E0FF30B503461446002247
:1003C000601C53F8202002F04042D1E9000540EAC9
:1003D00005108D6840EA05208D8940EA0545088AA8
:1003E000401E45EA0055087D801E45EA00608D6983
:1003F00028430243601C43F82020186800F4801052
:10040000B0F5801F07D1586820F47002088A401E9A
:1004100042EA00525A60002030BD000000B587B0AB
:10042000142102A8FFF728FF2A48006808B107B086
:1004300000BD01202749086000BF00200190264828
:10044000006840F00100244908600846006800F098
:100450000100019000BF00BF4FF6FF700290022024
:10046000039000200490032005900C20069002A920
:100470001A4800F03BF84FF23F0002900220039030
:1004800000200490032005900C20069002A9144837
:1004900000F02CF846F23F0002900220039000206A
:1004A0000490032005900C20069002A90D4800F04E
:1004B0001DF84FF6B37002900220039000200490C4
:1004C000032005900C20069002A9074800F00EF8C2
:1004D00000BFACE70C00002038380240001002409A
:1004E0000014024000180240000C0240F8B5024619
:1004F0000B460025002400200021E6E0012606FA34
:1005000001F51E6806EA0504AC4273D15E68012E4F
:1005100008D05E68022E05D05E68112E02D05E689B
:10052000122E13D190684F000326BE40B0434F00F7
:10053000DE68BE4030439060506801268E40B04374
:100540001E79C6F300168E4030435060D0684F00CD
:100550000326BE40B0434F009E68BE403043D0608B
:100560005E68022E02D05E68122E13D1CF0802F10F
:10057000200656F827004E07F70E0F26BE40B04360
:100580004F07FF0E1E69BE403043CF0802F1200620
:1005900046F8270010684F000326BE40B0431E797E
:1005A00006F003064F00BE40304310605E6806F060
:1005B0008056B6F1805FA8D100BF00260096454E58
:1005C000366846F48046434F3E603E46366806F441
:1005D0008046009600BF00BF3F4E8F0856F82700A8
:1005E0008E07370F0F26BE40B0433C4EB24202D1B9
:1005F00000262EE068E03A4EB24201D1012628E002
:10060000384EB24201D1022623E0374EB24201D128
:1006100003261EE0354EB24201D1042619E0344EC5
:10062000B24201D1052614E0324EB24201D1062673
:100630000FE0314EB24201D107260AE02F4EB242FE
:1006400001D1082605E02E4EB24201D1092600E074
:100650000A268F073F0FBE4030431F4E8F0846F8D3
:100660002700284E3068A0435E6806F48036B6F551
:10067000803F00D12043234E3060361D3068A043B8
:100680005E6806F40036B6F5003F00D120431D4EEB
:10069000361D3060361D3068A0435E6806F4801653
:1006A000B6F5801F00D12043164E08363060361D47
:1006B0003068A0435E6806F40016B6F5001F00D14E
:1006C0002043104E0C363060491C1029FFF416AF41
:1006D000F8BD0000443802400838014000000240E4
:1006E0000004024000080240000C024000100240DA
:1006F0000014024000180240001C0240002002408A
:1007000000240240003C01400AB1816101E00B0479
:1007100083617047014800687047000014000020A2
:100720000348006803490978084401490860704794
:10073000140000201C00002010B50D48006840F493
:1007400000700B4908600846006840F4806008604B
:100750000846006840F480700860032000F092F8BA
:10076000002000F007F800F02BF8002010BD00007A
:10077000003C024070B504460E4800784FF47A7190
:10078000B1FBF0F00C490968B1FBF0F5284600F028
:1007900062FC08B1012070BD102C07D20022214656
:1007A000501E00F031F80548046001E00120F2E736
:1007B0000020F0E71C00002020000020180000208E
:1007C00008B500BF002000900E48006840F480404B
:1007D0000C4908600846006800F48040009000BFA3
:1007E00000BF00BF00200090081F006840F080504C
:1007F000091F08600846006800F08050009000BFA4
:1008000000BF08BD443802402DE9F05F80460D4628
:100810001646002702F0AAFC074639462A46334608
:1008200001F00700C0F1070ABAF1040F02D94FF036
:10083000040A01E0C0F1070AD14600F1040ABAF146
:10084000070F02D24FF0000A01E0A0F1030AD446DC
:100850004FF0010A0AFA09FAAAF1010A0AEA020AA1
:100860000AFA0CFA4FF0010B0BFA0CFBABF1010B7F
:100870000BEA030B4AEA0B042146404602F07EFCD9
:10088000BDE8F09F00BF00F00702064B19684FF665
:10089000FF031940044B0B4343EA0221014B19604B
:1008A00000BF70470CED00E00000FA0538B50024E9
:1008B00000BF002000901D48006840F080501B4998
:1008C00008600846006800F08050009000BF00BF3C
:1008D000012017490864FFF71DFF044607E0FFF7F2
:1008E00019FF001BB0F57A7F01D9032038BD1148EC
:1008F000406800F48030B0F5803FF0D101200C4911
:100900004864FFF707FF044607E0FFF703FF001BFB
:10091000B0F57A7F01D90320E8E70648406800F483
:100920000030B0F5003FF0D10020DFE74038024052
:1009300000000E420070004070B504460D460CB930
:10094000012070BD5848006800F00F00A84209D28D
:1009500055490D700846006800F00F00A84201D00C
:100960000120EEE7207800F0020002281DD1207857
:1009700000F00400042805D14C48006840F4E05021
:100980004A490860207800F00800082805D1474847
:10099000006840F46040454908604448006820F021
:1009A000F000A168084341490860207800F0010088
:1009B000A8B36068012807D13C4808380068C0F334
:1009C0004040B8B90120BCE76068022802D06068E6
:1009D000032807D1354808380068C0F3406048B99B
:1009E0000120AEE7314808380068C0F3400008B97C
:1009F0000120A6E72D48006820F003006168084345
:100A00002A490860FFF786FE064609E0FFF782FEE6
:100A1000801B41F28831884202D9032091E707E028
:100A20002248006800F00C006168B0EB810FEDD146
:100A30001D48006800F00F00A84209D91A490D703E
:100A40000846006800F00F00A84201D0012078E7B6
:100A5000207800F00400042807D11448006820F42E
:100A6000E050E168084311490860207800F0080070
:100A7000082808D10D48006820F46040216940EA48
:100A8000C1000A49086000F019F808490968C1F373
:100A90000311074A515CC8400649086006480068CF
:100AA000FFF768FE00204CE7003C02400838024097
:100AB000E06D000820000020180000202DE9F0471C
:100AC000002400250026A1462548006800F00C00FF
:100AD00020B1042805D008283AD105E0DFF8849039
:100AE00039E0DFF8849036E01D48001F006800F010
:100AF0003F041B48001F006800F4800078B11A48CA
:100B00001749091F0968C1F38811A0FB017001464C
:100B1000224600233846FFF765FB05460EE01148E4
:100B20000F49091F0968C1F38811A0FB0170014634
:100B3000224600233846FFF755FB05460848001FAC
:100B40000068C0F30140401C4600B5FBF6F902E026
:100B5000DFF8109000BF00BF4846BDE8F0870000F6
:100B6000083802400024F40040787D01F8B50446BE
:100B70000CB90120F8BD207800F00100002874D0E5
:100B8000F948006800F00C0004280DD0F648006811
:100B900000F00C00082813D1F348001F006800F48F
:100BA0008000B0F5800F0BD1EF4808380068C0F323
:100BB0004040002859D06068002856D10120D9E76C
:100BC00000BF6068B0F5803F08D1E748083800688A
:100BD00040F48030E449083908601EE06068B0F5F0
:100BE000A02F0DD1E0480838006840F48020DE498D
:100BF000083908600846006840F4803008600CE05E
:100C0000D9480838006820F48030D749083908608E
:100C10000846006820F48020086000BF606890B13A
:100C2000FFF778FD054606E0FFF774FD401B6428DA
:100C300001D903209EE7CC4808380068C0F3404043
:100C40000028F1D011E0FFF765FD054606E0FFF74B
:100C500061FD401B642801D903208BE7C248083896
:100C60000068C0F340400028F1D1207800F0020075
:100C700002285FD1BC48006800F00C0058B1BA48A7
:100C8000006800F00C0008281CD1B748001F00685D
:100C900000F48000B0B9B44808380068C0F34000E0
:100CA00020B1E068012801D0012063E7AE48083890
:100CB000006820F0F800216940EAC100AA4908391B
:100CC000086037E0E06800B30120A8490860FFF73A
:100CD00021FD054606E0FFF71DFD401B022801D956
:100CE000032047E7A04808380068C0F34000002808
:100CF000F1D09D480838006820F0F800216940EAEA
:100D0000C10099490839086014E00020974908603B
:100D1000FFF700FD054606E0FFF7FCFC401B02283C
:100D200001D9032026E7904808380068C0F3400046
:100D30000028F1D1207800F0080008282CD1606943
:100D4000A8B101208A490860FFF7E4FC054606E0E7
:100D5000FFF7E0FC401B022801D903200AE7824884
:100D60006C300068C0F340000028F1D014E000208F
:100D70007F490860FFF7CEFC054606E0FFF7CAFC96
:100D8000401B022801D90320F4E677486C30006844
:100D9000C0F340000028F1D1207800F004000428BE
:100DA00070D1002770483830006800F0805090B94A
:100DB00000BF002000906C483830006840F0805040
:100DC0006949383108600846006800F0805000909A
:100DD00000BF00BF01276748006800F48070B0B909
:100DE0006448006840F4807062490860FFF792FC34
:100DF000054606E0FFF78EFC401B022801D90320C0
:100E0000B8E65C48006800F480700028F2D000BFAB
:100E1000A068012808D154486830006840F00100FB
:100E20005149683108601DE0A06805280DD14E4881
:100E30006830006840F004004B496831086008469B
:100E4000006840F0010008600CE047486830006826
:100E500020F001004449683108600846006820F02D
:100E60000400086000BFA068A8B1FFF753FC054666
:100E700009E0FFF74FFC401B41F28831884202D95C
:100E8000032077E626E0384868300068C0F3400069
:100E90000028EED013E0FFF73DFC054608E0FFF721
:100EA00039FC401B41F28831884201D9032061E6B8
:100EB0002D4868300068C0F340000028EFD1012FB2
:100EC00007D129483830006820F080502649383151
:100ED000086000BFA069002845D02348006800F0E2
:100EE0000C0008285DD0A069022845D100201F49C8
:100EF0000866FFF70FFC054606E0FFF70BFC401BFA
:100F0000022801D9032035E6174808380068C0F3E5
:100F100040600028F1D1D4E907010843616A40EA42
:100F200081110122A06AC2EB500041EA00412C204D
:100F3000005D41EA00600C49091F086001200B496F
:100F40000866FFF7E7FB054606E0FFF7E3FB401BFB
:100F5000022801D903200DE6034808380068C0F3D1
:100F600040600028F1D03FE00838024000004742CE
:100F7000800E47420070004000201C490866FFF7C1
:100F8000C9FB054606E0FFF7C5FB401B022801D957
:100F90000320EFE516480068C0F340600028F2D156
:100FA00022E0A069012800D1E4E51148001D06688F
:100FB00006F48001E069814214D106F03F01206A05
:100FC00081420FD147F6C0703040616A884209D132
:100FD00006F44031A06A814204D106F07061E06AF3
:100FE000814201D00120C5E50020C3E50000474251
:100FF0000038024070B504460E4615460CB9012073
:1010000070BD94F8490028B9002084F848002046B3
:1010100000F01CF804F108012068FFF793F931464D
:10102000A2682068FFF7C8F92946236BD4E90102BA
:10103000FFF764F9A168206850F8210040F0010032
:10104000A268216841F822000020D9E710B50446C3
:10105000FFF7E4F910BD70B504462546681EB0F1EF
:10106000807F01D301200FE0681E4FF0E02148612E
:101070000F214FF0FF3002F081F800204FF0E02107
:10108000886107200861002070BD00BFFEE70000F6
:10109000014621E014484088134A127900EB6200AF
:1010A000114A508010464088127900EB6200B0F57A
:1010B000F07F11DD0C4800880B4A127910440A4A6F
:1010C0001080002050801046008812791044B0F53E
:1010D000167F01DD00207047081EA1F10102D1B288
:1010E000D8D10120F7E700000000002010B5044629
:1010F00040F21F33002240F2DF11104601F002FFE0
:101100004FF4305005490880002003E00349891C52
:101110000C80401C02498842F8D310BDFEFF0760D6
:1011200000DC050010B500BF4FF47040FE49088098
:101130005520891C088000BF00BF4FF20100891EA6
:101140000880AA20891C088000BF00BF4FF202005F
:10115000891E08805220891C088000BF00BF4FF202
:101160000300891E08800820891C088000BF00BF7A
:101170004FF20400891E08800120891C088000BFEE
:1011800000BF4FF43040891E08800D20891C088064
:1011900000BF00BF4BF20100891E08800D20891C92
:1011A000088000BF00BF4BF20200891E08800D209E
:1011B000891C088000BF00BF4FF43640891E08809C
:1011C0003420891C088000BF00BF4BF20160891EDB
:1011D00008803420891C088000BF00BF4BF20260E9
:1011E000891E08803420891C088000BF00BF4FF48E
:1011F0003140891E08800D20891C088000BF00BF77
:101200004BF20110891E08800D20891C088000BF48
:1012100000BF4BF20210891E08800D20891C088037
:1012200000BF00BF4FF43740891E08803420891C5E
:10123000088000BF00BF4BF20170891E0880342077
:10124000891C088000BF00BF4BF20270891E088015
:101250003420891C088000BF00BF4FF43240891E33
:1012600008800020891C088000BF00BF4BF20120CD
:10127000891E08800020891C088000BF00BF4BF237
:101280000220891E08800020891C088000BF00BF42
:101290004FF43840891E08802420891C088000BF34
:1012A00000BF4BF60100891E08802420891C08809D
:1012B00000BF00BF4BF60200891E08802420891C55
:1012C000088000BF00BF4FF43F40891E0880012006
:1012D000891C088000BF00BF4FF43340891E08807E
:1012E0000F20891C088000BF00BF4BF20130891E0F
:1012F00008800F20891C088000BF00BF4BF202301D
:10130000891E08800F20891C088000BF00BF4FF491
:101310003940891E08803420891C088000BF00BF26
:101320004BF60110891E08803420891C088000BFFC
:1013300000BF4BF60210891E08803420891C0880EB
:1013400000BF00BF4FF43540891E08800820891C6B
:10135000088000BF00BF4BF20150891E08800820A2
:10136000891C088000BF00BF4BF20250891E088014
:101370000820891C088000BF00BF4FF44240891E2E
:1013800008800320891C088000BF00BF4FF43A404A
:10139000891E08802420891C088000BF00BF4BF6EE
:1013A0000120891E08802420891C088000BF00BFFE
:1013B0004BF60220891E08802420891C088000BF6B
:1013C00000BF4FF43C40891E08800020891C088023
:1013D00000BF00BF4BF60140891E08807820891CA1
:1013E000088000BF00BF4BF60240891E0880002025
:1013F000891C088000BF00BF4FF43D40891E088053
:101400000020891C088000BF00BF4BF60150891ED8
:1014100008807820891C088000BF00BF4BF602506E
:10142000891E08800020891C088000BF00BF4FF47F
:101430003E40891E08800020891C088000BF00BF34
:101440004BF60160891E08806420891C088000BF5B
:1014500000BF4FF45140891E08800020891C08807D
:1014600000BF00BF4DF20110891E08803320891C87
:10147000088000BF00BF4DF20210891E08800020C6
:10148000891C088000BF00BF4DF20310891E088030
:101490003420891C088000BF00BF4DF20410891E53
:1014A00008800020891C088000BF00BF4DF2051095
:1014B000891E08803A20891C088000BF00BF4DF2B9
:1014C0000610891E08800020891C088000BF00BF0C
:1014D0004DF20710891E08804A20891C088000BF31
:1014E00000BF4DF20810891E08800020891C08806A
:1014F00000BF00BF4DF20910891E08805C20891CC6
:10150000088000BF00BF4DF20A10891E088000202D
:10151000891C088000BF00BF4DF20B10891E088097
:101520008120891C088001E0FEFF076000BF00BF2A
:101530004DF20C10891E08800020891C088000BF15
:1015400000BF4DF20D10891E0880A620891C08805E
:1015500000BF00BF4DF20E10891E08800020891CBC
:10156000088000BF00BF4DF20F10891E0880E520E3
:10157000891C088000BF00BF4DF21010891E088032
:101580000120891C088000BF00BF4DF21110891E88
:1015900008801320891C088000BF00BF4DF2121084
:1015A000891E08800120891C088000BF00BF4DF201
:1015B0001310891E08805420891C088000BF00BFBA
:1015C0004DF21410891E08800120891C088000BF7C
:1015D00000BF4DF21510891E08808220891C0880EA
:1015E00000BF00BF4DF21610891E08800120891C23
:1015F000088000BF00BF4DF21710891E0880CA2066
:10160000891C088000BF00BF4DF21810891E088099
:101610000220891C088000BF00BF4DF21910891EEE
:1016200008800020891C088000BF00BF4DF21A10FE
:10163000891E08800220891C088000BF00BF4DF26F
:101640001B10891E08800120891C088000BF00BF74
:101650004DF21C10891E08800220891C088000BFE2
:1016600000BF4DF21D10891E08803420891C08809F
:1016700000BF00BF4DF21E10891E08800220891C89
:10168000088000BF00BF4DF21F10891E0880672030
:10169000891C088000BF00BF4DF22010891E088001
:1016A0000220891C088000BF00BF4DF22110891E56
:1016B00008808420891C088000BF00BF4DF22210E2
:1016C000891E08800220891C088000BF00BF4DF2DF
:1016D0002310891E0880A420891C088000BF00BF39
:1016E0004DF22410891E08800220891C088000BF4A
:1016F00000BF4DF22510891E0880B720891C088084
:1017000000BF00BF4DF22610891E08800220891CF0
:10171000088000BF00BF4DF22710891E0880CF202F
:10172000891C088000BF00BF4DF22810891E088068
:101730000220891C088000BF00BF4DF22910891EBD
:101740000880DE20891C088000BF00BF4DF22A10EF
:10175000891E08800220891C088000BF00BF4DF24E
:101760002B10891E0880F220891C088000BF00BF52
:101770004DF22C10891E08800220891C088000BFB1
:1017800000BF4DF22D10891E0880FE20891C0880A4
:1017900000BF00BF4DF22E10891E08800320891C57
:1017A000088000BF00BF4DF22F10891E0880102056
:1017B000891C088000BF00BF4DF23010891E0880D0
:1017C0000320891C088000BF00BF4DF23110891E24
:1017D00008803320891C088000BF00BF4DF2321002
:1017E000891E08800320891C088000BF00BF4DF2BD
:1017F0003310891E08806D20891C088000BF00BF3F
:101800004FF45240891E08800020891C088000BFC8
:1018100000BF4DF20120891E08803320891C0880FA
:1018200000BF00BF4DF20220891E08800020891CE5
:10183000088000BF00BF4DF20320891E08803420BD
:10184000891C088000BF00BF4DF20420891E08805B
:101850000020891C088000BF00BF4DF20520891EB2
:1018600008803A20891C088000BF00BF4DF2062086
:10187000891E08800020891C088000BF00BF4DF22F
:101880000720891E08804A20891C088000BF00BFED
:101890004DF20820891E08800020891C088000BFA6
:1018A00000BF4DF20920891E08805C20891C088039
:1018B00000BF00BF4DF20A20891E08800020891C4D
:1018C000088000BF00BF4DF20B20891E08808120D8
:1018D000891C088000BF00BF4DF20C20891E0880C3
:1018E0000020891C088000BF00BF4DF20D20891E1A
:1018F0000880A620891C088000BF00BF4DF20E2082
:10190000891E08800020891C088000BF00BF4DF29E
:101910000F20891E0880E520891C088000BF00BFB9
:101920004DF21020891E08800120891C088000BF0C
:1019300000BF4DF21120891E08801320891C0880E9
:1019400000BF00BF4DF21220891E08800120891CB3
:10195000088000BF00BF4DF21320891E088054206C
:10196000891C088000BF00BF4DF21420891E08802A
:101970000120891C088000BF00BF4DF21520891E80
:1019800008808220891C088000BF00BF4DF216200D
:10199000891E08800120891C088000BF00BF4DF20D
:1019A0001720891E0880CA20891C088000BF00BF3C
:1019B0004DF21820891E08800220891C088000BF73
:1019C00000BF4DF21920891E08800020891C088064
:1019D00000BF00BF4DF21A20891E08800220891C1A
:1019E000088000BF00BF4DF21B20891E0880012027
:1019F000891C088000BF00BF4DF21C20891E088092
:101A00000220891C088000BF00BF4DF21D20891EE6
:101A100008803420891C088000BF00BF4DF21E20C2
:101A2000891E08800220891C088000BF00BF4DF27B
:101A30001F20891E08806720891C088000BF00BF06
:101A40004DF22020891E08800220891C088000BFDA
:101A500000BF4DF22120891E08808420891C088047
:101A600000BF00BF4DF22220891E08800220891C81
:101A7000088000BF00BF4DF22320891E0880A420EB
:101A8000891C088000BF00BF4DF22420891E0880F9
:101A90000220891C088000BF00BF4DF22520891E4E
:101AA0000880B720891C088000BF00BF4DF22620A7
:101AB000891E08800220891C088000BF00BF4DF2EB
:101AC0002720891E0880CF20891C088000BF00BF06
:101AD0004DF22820891E08800220891C088000BF42
:101AE00000BF4DF22920891E0880DE20891C088055
:101AF00000BF00BF4DF22A20891E08800220891CE9
:101B0000088000BF00BF4DF22B20891E0880F22004
:101B1000891C088000BF00BF4DF22C20891E088060
:101B20000220891C088000BF00BF4DF22D20891EB5
:101B30000880FE20891C088000BF00BF4DF22E20C7
:101B4000891E08800320891C088000BF00BF4DF259
:101B50002F20891E08801020891C088000BF00BF2C
:101B60004DF23020891E08800320891C088000BFA8
:101B700000BF4DF23120891E08803320891C088067
:101B800000BF00BF4DF23220891E08800320891C4F
:101B9000088000BF00BF4DF23320891E08806D20F1
:101BA000891C088000BF00BF4FF45340891E088085
:101BB0000020891C088000BF00BF4DF20130891E43
:101BC00008803320891C088000BF00BF4DF202301E
:101BD000891E08800020891C088000BF00BF4DF2CC
:101BE0000330891E08803420891C088000BF00BF94
:101BF0004DF20430891E08800020891C088000BF37
:101C000000BF4DF20530891E08803A20891C0880EB
:101C100000BF00BF4DF20630891E08800020891CDD
:101C2000088000BF00BF4DF20730891E08804A209F
:101C3000891C088000BF00BF4DF20830891E088053
:101C40000020891C088000BF00BF4DF20930891EAA
:101C500008805C20891C088000BF00BF4DF20A305C
:101C6000891E08800020891C088000BF00BF4DF23B
:101C70000B30891E08808120891C088000BF00BFAE
:101C80004DF20C30891E08800020891C088000BF9E
:101C900000BF4DF20D30891E0880A620891C0880E7
:101CA00000BF00BF4DF20E30891E08800020891C45
:101CB000088000BF00BF4DF20F30891E0880E5206C
:101CC000891C088000BF00BF4DF21030891E0880BB
:101CD0000120891C088000BF00BF4DF21130891E11
:101CE00008801320891C088000BF00BF4DF212300D
:101CF000891E08800120891C088000BF00BF4DF2AA
:101D00001330891E08805420891C088000BF00BF42
:101D10004DF21430891E08800120891C088000BF04
:101D200000BF4DF21530891E08808220891C088072
:101D300000BF00BF4DF21630891E08800120891CAB
:101D4000088000BF00BF4DF21730891E0880CA20EE
:101D5000891C088000BF00BF4DF21830891E088022
:101D60000220891C088000BF00BF4DF21930891E77
:101D700008800020891C088000BF00BF4DF21A3087
:101D8000891E08800220891C088000BF00BF4DF218
:101D90001B30891E08800120891C088000BF00BFFD
:101DA0004DF21C30891E08800220891C088000BF6B
:101DB00000BF4DF21D30891E08803420891C088028
:101DC00000BF00BF4DF21E30891E08800220891C12
:101DD000088000BF00BF4DF21F30891E08806720B9
:101DE000891C088000BF00BF4DF22030891E08808A
:101DF0000220891C088000BF00BF4DF22130891EDF
:101E000008808420891C088000BF00BF4DF222306A
:101E1000891E08800220891C088000BF00BF4DF287
:101E20002330891E0880A420891C088000BF00BFC1
:101E30004DF22430891E08800220891C088000BFD2
:101E400000BF4DF22530891E0880B720891C08800C
:101E500000BF00BF4DF22630891E08800220891C79
:101E6000088000BF00BF4DF22730891E0880CF20B8
:101E7000891C088000BF00BF4DF22830891E0880F1
:101E80000220891C088000BF00BF4DF22930891E46
:101E90000880DE20891C088000BF00BF4DF22A3078
:101EA000891E08800220891C088000BF00BF4DF2F7
:101EB0002B30891E0880F220891C088000BF00BFDB
:101EC0004DF22C30891E08800220891C088000BF3A
:101ED00000BF4DF22D30891E0880FE20891C08802D
:101EE00000BF00BF4DF22E30891E08800320891CE0
:101EF000088000BF00BF4DF22F30891E08801020DF
:101F0000891C088000BF00BF4DF23030891E088058
:101F10000320891C088000BF00BF4DF23130891EAC
:101F200008803320891C088000BF00BF4DF232308A
:101F3000891E08800320891C088000BF00BF4DF265
:101F40003330891E08806D20891C088000BF00BFC7
:101F50004FF45440891E08800020891C088000BF6F
:101F600000BF4DF20140891E08803320891C088083
:101F700000BF00BF4DF20240891E08800020891C6E
:101F8000088000BF00BF4DF20340891E0880342046
:101F9000891C088000BF00BF4DF20440891E0880E4
:101FA0000020891C088000BF00BF4DF20540891E3B
:101FB00008803A20891C088000BF00BF4DF206400F
:101FC000891E08800020891C088000BF00BF4DF2D8
:101FD0000740891E08804A20891C088000BF00BF76
:101FE0004DF20840891E08800020891C088000BF2F
:101FF00000BF4DF20940891E08805C20891C0880C2
:1020000000BF00BF4DF20A40891E08800020891CD5
:10201000088000BF00BF4DF20B40891E0880812060
:10202000891C088000BF00BF4DF20C40891E08804B
:102030000020891C088000BF00BF4DF20D40891EA2
:102040000880A620891C088000BF00BF4DF20E400A
:10205000891E08800020891C088000BF00BF4DF247
:102060000F40891E0880E520891C088000BF00BF42
:102070004DF21040891E08800120891C088000BF95
:1020800000BF4DF21140891E08801320891C088072
:1020900000BF00BF4DF21240891E08800120891C3C
:1020A000088000BF00BF4DF21340891E08805420F5
:1020B000891C088000BF00BF4DF21440891E0880B3
:1020C0000120891C088000BF00BF4DF21540891E09
:1020D00008808220891C088000BF00BF4DF2164096
:1020E000891E08800120891C088000BF00BF4DF2B6
:1020F0001740891E0880CA20891C088000BF00BFC5
:102100004DF21840891E08800220891C088000BFFB
:1021100000BF4DF21940891E08800020891C0880EC
:1021200000BF00BF4DF21A40891E08800220891CA2
:10213000088000BF00BF4DF21B40891E08800120AF
:10214000891C088000BF00BF4DF21C40891E08801A
:102150000220891C088000BF00BF4DF21D40891E6F
:1021600008803420891C088000BF00BF4DF21E404B
:10217000891E08800220891C088000BF00BF4DF224
:102180001F40891E08806720891C088000BF00BF8F
:102190004DF22040891E08800220891C088000BF63
:1021A00000BF4DF22140891E08808420891C0880D0
:1021B00000BF00BF4DF22240891E08800220891C0A
:1021C000088000BF00BF4DF22340891E0880A42074
:1021D000891C088000BF00BF4DF22440891E088082
:1021E0000220891C088000BF00BF4DF22540891ED7
:1021F0000880B720891C088000BF00BF4DF2264030
:10220000891E08800220891C088000BF00BF4DF293
:102210002740891E0880CF20891C088000BF00BF8E
:102220004DF22840891E08800220891C088000BFCA
:1022300000BF4DF22940891E0880DE20891C0880DD
:1022400000BF00BF4DF22A40891E08800220891C71
:10225000088000BF00BF4DF22B40891E0880F2208D
:10226000891C088000BF00BF4DF22C40891E0880E9
:102270000220891C088000BF00BF4DF22D40891E3E
:102280000880FE20891C088000BF00BF4DF22E4050
:10229000891E08800320891C088000BF00BF4DF202
:1022A0002F40891E08801020891C088000BF00BFB5
:1022B0004DF23040891E08800320891C088000BF31
:1022C00000BF4DF23140891E08803320891C0880F0
:1022D00000BF00BF4DF23240891E08800320891CD8
:1022E000088000BF00BF4DF23340891E08806D207A
:1022F000891C088000BF00BF4FF45540891E08802C
:102300000020891C088000BF00BF4DF20150891ECB
:1023100008803320891C088000BF00BF4DF20250A6
:10232000891E08800020891C088000BF00BF4DF274
:102330000350891E08803420891C088000BF00BF1C
:102340004DF20450891E08800020891C088000BFBF
:1023500000BF4DF20550891E08803A20891C088074
:1023600000BF00BF4DF20650891E08800020891C66
:10237000088000BF00BF4DF20750891E08804A2028
:10238000891C088000BF00BF4DF20850891E0880DC
:102390000020891C088000BF00BF4DF20950891E33
:1023A00008805C20891C088000BF00BF4DF20A50E5
:1023B000891E08800020891C088000BF00BF4DF2E4
:1023C0000B50891E08808120891C088000BF00BF37
:1023D0004DF20C50891E08800020891C088000BF27
:1023E00000BF4DF20D50891E0880A620891C088070
:1023F00000BF00BF4DF20E50891E08800020891CCE
:10240000088000BF00BF4DF20F50891E0880E520F4
:10241000891C088000BF00BF4DF21050891E088043
:102420000120891C088000BF00BF4DF21150891E99
:1024300008801320891C088000BF00BF4DF2125095
:10244000891E08800120891C088000BF00BF4DF252
:102450001350891E08805420891C088000BF00BFCB
:102460004DF21450891E08800120891C088000BF8D
:1024700000BF4DF21550891E08808220891C0880FB
:1024800000BF00BF4DF21650891E08800120891C34
:10249000088000BF00BF4DF21750891E0880CA2077
:1024A000891C088000BF00BF4DF21850891E0880AB
:1024B0000220891C088000BF00BF4DF21950891E00
:1024C00008800020891C088000BF00BF4DF21A5010
:1024D000891E08800220891C088000BF00BF4DF2C1
:1024E0001B50891E08800120891C088000BF00BF86
:1024F0004DF21C50891E08800220891C088000BFF4
:1025000000BF4DF21D50891E08803420891C0880B0
:1025100000BF00BF4DF21E50891E08800220891C9A
:10252000088000BF00BF4DF21F50891E0880672041
:10253000891C088000BF00BF4DF22050891E088012
:102540000220891C088000BF00BF4DF22150891E67
:1025500008808420891C088000BF00BF4DF22250F3
:10256000891E08800220891C088000BF00BF4DF230
:102570002350891E0880A420891C088000BF00BF4A
:102580004DF22450891E08800220891C088000BF5B
:1025900000BF4DF22550891E0880B720891C088095
:1025A00000BF00BF4DF22650891E08800220891C02
:1025B000088000BF00BF4DF22750891E0880CF2041
:1025C000891C088000BF00BF4DF22850891E08807A
:1025D0000220891C088000BF00BF4DF22950891ECF
:1025E0000880DE20891C088000BF00BF4DF22A5001
:1025F000891E08800220891C088000BF00BF4DF2A0
:102600002B50891E0880F220891C088000BF00BF63
:102610004DF22C50891E08800220891C088000BFC2
:1026200000BF4DF22D50891E0880FE20891C0880B5
:1026300000BF00BF4DF22E50891E08800320891C68
:10264000088000BF00BF4DF22F50891E0880102067
:10265000891C088000BF00BF4DF23050891E0880E1
:102660000320891C088000BF00BF4DF23150891E35
:1026700008803320891C088000BF00BF4DF2325013
:10268000891E08800320891C088000BF00BF4DF20E
:102690003350891E08806D20891C088000BF00BF50
:1026A0004FF45640891E08800020891C088000BF16
:1026B00000BF4DF20160891E08803320891C08800C
:1026C00000BF00BF4DF20260891E08800020891CF7
:1026D000088000BF00BF4DF20360891E08803420CF
:1026E000891C088000BF00BF4DF20460891E08806D
:1026F0000020891C088000BF00BF4DF20560891EC4
:1027000008803A20891C088000BF00BF4DF2066097
:10271000891E08800020891C088000BF00BF4DF280
:102720000760891E08804A20891C088000BF00BFFE
:102730004DF20860891E08800020891C088000BFB7
:1027400000BF4DF20960891E08805C20891C08804A
:1027500000BF00BF4DF20A60891E08800020891C5E
:10276000088000BF00BF4DF20B60891E08808120E9
:10277000891C088000BF00BF4DF20C60891E0880D4
:102780000020891C088000BF00BF4DF20D60891E2B
:102790000880A620891C088000BF00BF4DF20E6093
:1027A000891E08800020891C088000BF00BF4DF2F0
:1027B0000F60891E0880E520891C088000BF00BFCB
:1027C0004DF21060891E08800120891C088000BF1E
:1027D00000BF4DF21160891E08801320891C0880FB
:1027E00000BF00BF4DF21260891E08800120891CC5
:1027F000088000BF00BF4DF21360891E088054207E
:10280000891C088000BF00BF4DF21460891E08803B
:102810000120891C088000BF00BF4DF21560891E91
:1028200008808220891C088000BF00BF4DF216601E
:10283000891E08800120891C088000BF00BF4DF25E
:102840001760891E0880CA20891C088000BF00BF4D
:102850004DF21860891E08800220891C088000BF84
:1028600000BF4DF21960891E08800020891C088075
:1028700000BF00BF4DF21A60891E08800220891C2B
:10288000088000BF00BF4DF21B60891E0880012038
:10289000891C088000BF00BF4DF21C60891E0880A3
:1028A0000220891C088000BF00BF4DF21D60891EF8
:1028B00008803420891C088000BF00BF4DF21E60D4
:1028C000891E08800220891C088000BF00BF4DF2CD
:1028D0001F60891E08806720891C088000BF00BF18
:1028E0004DF22060891E08800220891C088000BFEC
:1028F00000BF4DF22160891E08808420891C088059
:1029000000BF00BF4DF22260891E08800220891C92
:10291000088000BF00BF4DF22360891E0880A420FC
:10292000891C088000BF00BF4DF22460891E08800A
:102930000220891C088000BF00BF4DF22560891E5F
:102940000880B720891C088000BF00BF4DF22660B8
:10295000891E08800220891C088000BF00BF4DF23C
:102960002760891E0880CF20891C088000BF00BF17
:102970004DF22860891E08800220891C088000BF53
:1029800000BF4DF22960891E0880DE20891C088066
:1029900000BF00BF4DF22A60891E08800220891CFA
:1029A000088000BF00BF4DF22B60891E0880F22016
:1029B000891C088000BF00BF4DF22C60891E088072
:1029C0000220891C088000BF00BF4DF22D60891EC7
:1029D0000880FE20891C088000BF00BF4DF22E60D9
:1029E000891E08800320891C088000BF00BF4DF2AB
:1029F0002F60891E08801020891C088000BF00BF3E
:102A00004DF23060891E08800320891C088000BFB9
:102A100000BF4DF23160891E08803320891C088078
:102A200000BF00BF4DF23260891E08800320891C60
:102A3000088000BF00BF4DF23360891E08806D2002
:102A4000891C088000BF00BF4FF47040891E0880B9
:102A50005520891C088000BF00BF4FF20100891E6D
:102A60000880AA20891C088000BF00BF4FF2020026
:102A7000891E08805220891C088000BF00BF4FF2C9
:102A80000300891E08800820891C088000BF00BF41
:102A90004FF20400891E08800020891C088000BFB6
:102AA00000BF4FF43140891E0880CC20891C08806B
:102AB00000BF00BF4BF20110891E08800020891C56
:102AC000088000BF00BF4FF43640891E08800520F3
:102AD000891C088000BF00BF4FF43740891E088062
:102AE0007020891C088000BF00BF4BF20170891E56
:102AF00008807020891C088000BF00BF4FF4384058
:102B0000891E08800120891C088000BF00BF4BF689
:102B10000100891E08800320891C088000BF00BFB7
:102B20004BF60200891E08800320891C088000BF24
:102B300000BF4BF60300891E08800320891C088013
:102B400000BF00BF4FF43C40891E08800220891C52
:102B5000088000BF00BF4BF60140891E088000209E
:102B6000891C088000BF00BF4BF60240891E088008
:102B70000020891C088000BF00BF4FF44940891E17
:102B80000880D020891C088000BF00BF4CF60110CF
:102B9000891E08800220891C088000BF00BF4CF6F7
:102BA0000210891E08805020891C088000BF00BFC9
:102BB0004CF60310891E08805020891C088000BF35
:102BC00000BF4CF60410891E08805020891C088024
:102BD00000BF00BF4FF45450891E08800020891C9C
:102BE000088000BF00BF4FF46850891E0880552040
:102BF000891C088000BF4FF48850891E0880782007
:102C000000F0DFFA4FF424500149088010BD0000A5
:102C1000FEFF0760014AD08011817047000000204C
:102C2000014908717047000000000020F0B505461A
:102C300013480779002400261DE0AC5DFA2C0ADA5F
:102C400004EBC40101EB04110E4A02EBC1000121A7
:102C500000F0A4F90EE0FF2C07D1094800883844A1
:102C6000074908800020488004E0FE2C02D10120A2
:102C7000FEF70EFA761CA85DFD28DED1F0BD00003F
:102C800000000020C4450008FEB5074600240020CF
:102C90000090019002903D460BE00A20B5FBF0F158
:102CA00000FB11500DF80400601CC4B20A20B5FBF3
:102CB000F0F5002DF1D1661E09E01DF806100F3168
:102CC000044A02EB0110002100F068F9761E002E84
:102CD000F3DAFEBDA432000870B505461748067940
:102CE0002C4625E0207800B970BD2078202803D13B
:102CF0000120FEF7CDF91AE020780A2807D10F4805
:102D0000008830440D490880002048800FE020787A
:102D1000202802DB20787E2800DD08E02178213998
:102D2000074A02EB0110002100F038F900BF641CD3
:102D300020780028D6D100BFD6E700000000002090
:102D4000A432000800B58FB01C2108A8FDF794FA42
:102D50001C2101A8FDF790FA4FF02040214908609E
:102D6000214848600020886000211E48C160016140
:102D70001021416100218161C161016241624FF412
:102D8000805181620021C1624FF4804101630021C2
:102D900041638163C16341640F2008900990092059
:102DA0000A9008200B9010200C9011200D9000200C
:102DB0000E90032001900F20029003200390012029
:102DC000049010200590112006900020079001AA81
:102DD00008A90448FEF70EF908B1FDF78CFA0FB008
:102DE00000BD000024000020040100A000B587B051
:102DF000142102A8FDF740FA00BF002001903C48D2
:102E0000006840F010003A4908600846006800F089
:102E10001000019000BF00BF00BF002001900846D5
:102E2000006840F0200008600846006800F02000BC
:102E3000019000BF00BF00BF00200190084600685D
:102E400040F0800008600846006800F080000190B3
:102E500000BF00BF00BF002001900846006840F09E
:102E6000400008600846006800F04000019000BF84
:102E700000BF00BF002001900846006840F0080035
:102E800008600846006800F00800019000BF00BF1D
:102E900000BF002001900846006840F00100086073
:102EA0000846006800F00100019000BF00BF00BFAD
:102EB000002001900846006840F0020008600846C3
:102EC000006800F00200019000BF00BF0122202135
:102ED0000848FDF719FC20200290012003900020F3
:102EE0000490059002A90348FDF700FB07B000BD60
:102EF000303802400004024000BFFEE700BFFEE79A
:102F00007047704730B500BF4FF42854224D2C80D5
:102F10000412AD1C2C8000BF00BF42F60124AD1E80
:102F20002C80C4B2AD1C2C8000BF00BF42F602242E
:102F3000AD1E2C800C12AD1C2C8000BF00BF42F6D1
:102F40000324AD1E2C80CCB2AD1C2C8000BF00BF72
:102F50004FF42C54AD1E2C801412AD1C2C8000BFDD
:102F600000BF42F60134AD1E2C80D4B2AD1C2C80C3
:102F700000BF00BF42F60234AD1E2C801C12AD1CF7
:102F80002C8000BF00BF42F60334AD1E2C80DCB2A3
:102F9000AD1C2C8000BF30BDFEFF07602DE9F0475F
:102FA00007460D464FF0000ADFF8D080A8F102096D
:102FB0004846047915B90079401002E02F48801E78
:102FC000007906462D48801E40883044B0F5F07FD9
:102FD00008DD2A48801E008820442849891E088070
:102FE000002048802548801E00882044B0F5167FC8
:102FF00001DDBDE8F087B9F800C0A444ACF1010CD4
:103000001FFA8CF3B9F80020B8F800C0B444ACF152
:10301000010C1FFA8CF1B8F80000FFF773FF04FBF6
:1030200006F04FEAE00A4FF43050154908800020BE
:1030300017E0395C002211E001F001031BB10F4BD6
:103040009B1EDB8802E00D4B9B1E1B89DFF830C006
:103050000CF1020CACF800304910521C082AEBDBD2
:10306000401C5045E5DB1DB90120FEF711F802E0D8
:103070000220FEF70DF800BFBBE7000002000020B1
:10308000FEFF076010B5FDF74BFB10BD00B593B018
:10309000302107A8FDF7F0F8142102A8FDF7ECF89D
:1030A00000BF002001902748006840F0805025496B
:1030B00008600846006800F08050019000BF00BF23
:1030C00000BF002001902048006840F440401E49A5
:1030D00008600846006800F44040019000BF00BF4F
:1030E000012007900004089002200D9041050E91E8
:1030F00019210F914FF4B471109102211191042103
:10310000129107A8FDF732FD08B1FDF7F4F8FDF7BD
:10311000CDFB08B1FDF7EFF80F20029002200390DD
:10312000002004904FF4A05005904FF4805006907A
:10313000052102A8FDF700FC08B1FDF7DCF813B08B
:1031400000BD0000403802400070004005480068A3
:1031500040F47000034908604FF000600149803975
:103160000860704788ED00E000BFFEE70248006895
:10317000C0F30220704700000CED00E010B50028FD
:1031800004DB0A07130E054A135406E00A07140E5F
:10319000034A00F00F031B1FD45410BD00E400E0ED
:1031A00018ED00E002E008C8121F08C1002AFAD199
:1031B00070477047002001E001C1121F002AFBD1B7
:1031C000704770B50446002504E04FF47A7000F0B3
:1031D00005F86D1CA542F8D370BD00002DE9F0473D
:1031E00007464FF0E0208569FDF768FC0F49B0FB0A
:1031F000F1F807FB08F900264FF0E020D0F814A002
:103200000FE04FF0E0208469AC4202D2281B064454
:1032100003E0AAEB04002844064425464E4500D3AB
:1032200000E0EEE700BFBDE8F087000040420F007D
:1032300092B0FDF781FAFFF729FFFFF7D7FDFFF7FF
:1032400081FDFDF76FFF48F23040FDF74FFF44224C
:103250000C4901A8FCF7F7FF48F230410020FFF7C6
:10326000D9FC09A0FFF738FD2820FFF7D9FC01A8F9
:10327000FFF7DCFC1020FFF7D3FC0948FFF704FD43
:1032800000BFFEE79C6D000868656C6C6F2C205ACF
:1032900068656E68616979616E67210A00000000E7
:1032A00015CD5B07000000080808080808080000A2
:1032B000080800000048242412000000000000005C
:1032C000000000000000004848487E2424247E249A
:1032D000242400000000103C5252121C3050505266
:1032E000523C1010000000222515150D2A58545488
:1032F000522200000000000C1212120A7625291931
:10330000916E0000000604040200000000000000AE
:1033100000000000004020101008080808080810ED
:1033200010204000000204080810101010101008AF
:10333000080402000000000008086B1C1C6B080851
:10334000000000000000000000101010FE1010101F
:10335000000000000000000000000000000000006D
:103360000604040200000000000000007E000000CF
:10337000000000000000000000000000000000004D
:103380000606000000004020202010100808080455
:10339000040202000000001824424242424242421B
:1033A00024180000000000101C1010101010101045
:1033B000107C00000000003C424242402010080403
:1033C000427E00000000003C424240201820404263
:1033D000423C000000000020303028242422FE203F
:1033E00020F800000000007E0202021E224040423F
:1033F000221C0000000000182402023A4642424209
:10340000443800000000007E422020101008080808
:10341000080800000000003C4242422418244242B6
:10342000423C00000000001C22424242625C4040DC
:103430002418000000000000000018180000000020
:103440001818000000000000000000080000000044
:1034500000080808000000402010080402040810BA
:10346000204000000000000000007E00007E000000
:103470000000000000000002040810204020100896
:10348000040200000000003C4242462010101000E0
:10349000181800000000001C225A55555555553A81
:1034A000423C00000000000808181414243C22428A
:1034B00042E700000000001F2222221E2242424258
:1034C000221F00000000007C424201010101014274
:1034D000221C00000000001F22424242424242429F
:1034E000221F00000000003F4212121E1212024270
:1034F000423F00000000003F4212121E1212020260
:10350000020700000000003C22220101017121227B
:10351000221C0000000000E7424242427E4242423A
:1035200042E700000000003E0808080808080808F4
:10353000083E00000000007C101010101010101049
:103540001010110F0000007722120A0E0A12122228
:1035500022770000000000070202020202020202BB
:10356000427F00000000007736363636362A2A2A97
:103570002A6B0000000000E346464A4A525252625B
:10358000624700000000001C22414141414141418D
:10359000221C00000000003F424242423E02020262
:1035A000020700000000001C224141414141414D01
:1035B000321C60000000003F4242423E12122222B2
:1035C00042C700000000007C424202041820404232
:1035D000423E00000000007F49080808080808086B
:1035E000081C0000000000E74242424242424242C0
:1035F000423C0000000000E7424222242414141838
:10360000080800000000006B2A2A2A2A2A3614140F
:1036100014140000000000E7422424181818242481
:1036200042E700000000007722221414080808086E
:10363000081C00000000007E212010100804044235
:10364000423F000000780808080808080808080831
:10365000080878000000020404040808081010207C
:1036600020204040001E10101010101010101010DC
:1036700010101E00001824000000000000000000D0
:10368000000000000000000000000000000000003A
:10369000000000FF0006080000000000000000001D
:1036A00000000000000000000000001C22302C225E
:1036B000326C0000000000000302021A264242425F
:1036C000261A000000000000000000384402020238
:1036D00044380000000000006040407C424242420A
:1036E00062DC0000000000000000003C42427E025C
:1036F000423C0000000000003048083E080808086E
:10370000083E0000000000000000007C22221C0295
:103710003C42423C000000000302023A4642424260
:1037200042E700000000000C0C00000E080808082A
:10373000083E00000000003030000038202020202B
:103740002020221E0000000003020272120A0E1244
:1037500022770000000000080E0808080808080882
:10376000083E0000000000000000007F929292924C
:1037700092B70000000000000000003B46424242B9
:1037800042E70000000000000000003C42424242CC
:10379000423C0000000000000000001B26424242A4
:1037A000261A02070000000000000058644242424E
:1037B000645840E000000000000000774C0404045E
:1037C000041F0000000000000000007C42023C409A
:1037D000423E0000000000000008083E08080808FB
:1037E00048300000000000000000006342424242F6
:1037F00062DC0000000000000000007722221414A8
:103800000808000000000000000000DB91525A2A66
:1038100024240000000000000000006E2418181886
:103820002476000000000000000000E74224241875
:1038300018080806000000000000007E221008089A
:10384000447E000000C020202020202010202020C6
:103850002020C000101010101010101010101010A8
:1038600010101010000304040404040408040404E9
:1038700004040300045A20000000000000000000BF
:103880000000000000022204943F88209420923F10
:1038900091209020983F9404924491289010902277
:1038A0008A4184000000FC3F000200020802080276
:1038B0000402FC7F8002400220021002080206027D
:1038C000800200010000F81F081008100810F81FFF
:1038D000081008100810F81F081008100410041031
:1038E000021401081000D01F101108110811EC7FFC
:1038F0000C110A110911C81F08110801880088005D
:103900004800280080008000800080008000800047
:103910004001400120022002100410040808041095
:103920000220014084028404C47F44046C04D53F17
:1039300045044504C53F44044404C47F4400A42412
:103940002449144908010802C83F1800AA088A0837
:103950004A15292208000802E87F08020802080226
:10396000080208022002700A1E1210121002FF7FC5
:103970001002102250223012180C1644104A105116
:10398000D46008404410881088080004FF7F1004A9
:1039900088088410F36780008000FE3F800080006C
:1039A0008000800008000800C87F08043F04080267
:1039B0001C022C0B8A124A22292208020802080241
:1039C000080208020402040204027C3E22211211B1
:1039D000810408040804080A080A480A2811181172
:1039E000882040400000F81F081008100810F81F39
:1039F000081208020804C408041102603100C00063
:103A0000000100020000FE1F000800040002800107
:103A100080008000800080008000800080008000A6
:103A2000A00040000000FC0F04080408140A240A47
:103A30004409440984088408440944492452125220
:103A400002600140FC1F8000FE7F8240B92E800092
:103A5000B80E0000FC1F00100010F81F001000102E
:103A6000FC1F0010F80F08080808F80F08080808DD
:103A7000F80F0000FF7F80008800881F88009400F6
:103A8000A200C17F800282048404C47F40046004D9
:103A9000D73F44044404C43F440444045404CC7F4A
:103AA0004400400008000800C87F08043F040804E0
:103AB0000804280418040C040B040804080408046F
:103AC0000A05040270008F3B49222A22FF2A1C3378
:103AD0002A2241223E322A2BAA263E222A222A22AA
:103AE000BE2A2211080810081004FF7F00007C1075
:103AF000441244127C12441244127C1244104410AA
:103B00005414240840044804480448044804FF7F2F
:103B10004804480448044804C8070800080008008E
:103B2000F83F00000800887F88008800BF00883FB9
:103B30008C209C20AA20AA20893F88008800880029
:103B4000887F08001004FE3F10044000FF7F100033
:103B5000F80F14081308F00F8000102112491248C2
:103B6000E10F0000800080009004900888108420FD
:103B70008220000080008000FC1F80008000800008
:103B8000FF7F00000402040184084410E43F9F20EA
:103B90008400C41F24020402E47F1C02070582087B
:103BA000401030602002200220023F7E20022002CE
:103BB00020023E3E20022002200220023F7E200200
:103BC000200220020801083F8420841F1210DF7F9A
:103BD00008020445C22C1F1A0229C02C184A0709E2
:103BE000C20A000440008000FE7F02400120F80766
:103BF000000200018000FF7F8000800080008000C4
:103C0000A0004000000204020802C83F0022002277
:103C10000F220822E87F08020805280598084810A6
:103C2000202010400000F0071004100410041004BD
:103C3000100410041004100408040844044404444C
:103C400002780100001FFC00880890048000FF7FBC
:103C500090040808FC1F8B688808F80F88088808FB
:103C6000F80F08080402040204053F0582084A1000
:103C70002960BF0888048802B8018F008A20882044
:103C8000083F08000000FC1F04100410E413241275
:103C90002412241224122412E41304100410FC1F12
:103CA00004100000100110011001887F88404C2092
:103CB0002C040A048914882448244844284408040D
:103CC00008050802080488243C2504150204BD3FA9
:103CD00088208824BF24882488248824280A18114E
:103CE000882040400000FC1F84108410FC1F04004A
:103CF000F41F14101410F41F1410F41F12101210DB
:103D0000F11F101000003C1E2412241224123C1E2D
:103D1000000080088010FF7F800040012002100416
:103D20000C18036008000800843F240422041F04C8
:103D30000804040402043F040204000438040704D5
:103D4000C27F00000800107FFE084404283EFE22C7
:103D5000222A122A4A2A222A122A8A2A421422248F
:103D600011420C41800080008F0F49082904D91F9F
:103D70004912491249124912EF7F090500058008CE
:103D8000401030600000FE3F000100018000800014
:103D9000C002A00490088810842082208100800046
:103DA00080008000880888088408840892089F089A
:103DB0008808840882085F1542164014382227229A
:103DC000122188400804081478244404CC7F52044B
:103DD000250A280A101108118420424000001211FF
:103DE0002222212280008000FE3F8000FC1F8000F4
:103DF000FF7F0000F80F0808F80F0808F80F080800
:103E0000080A0804800080008000FC1F84108410D1
:103E10008410FC1F84108000880090006000A001C6
:103E2000180E07700000FC0F0008000800080408C6
:103E30000408FC0F040004000400042004200420F3
:103E4000F83F00000800883F04102408220C1F12CD
:103E50000821C4400200BF3F0204000438040704E4
:103E6000C27F0000000A00120002FC7F040204026C
:103E700004227C224422441444144448544C2252C8
:103E800002618140200020002000FF7F100010010F
:103E9000102148214811240994028202410420087B
:103EA000181006600010803F7E0844088804FE7FDA
:103EB00042404120FE1F2000E00F50088804040308
:103EC000C20C38700000FF7F8000800088108810CE
:103ED00088088404420140012002200210040808DE
:103EE000041003600404FC04027C7D125415FF14CA
:103EF0005208FE1420621001F8004008FC1F8010D8
:103F0000A80444081001101108090C078A0169214E
:103F10000821083E88008000FF7F8000800080002C
:103F200080008000080008000800083E7F2244222C
:103F30004422442242222422282210222822443EC3
:103F40004222010000000000FE3F000000000000CF
:103F50000000FC1F00000000000000000000FF7FC8
:103F6000000000000008001FFC00800080008000AE
:103F70008000FF7F80008000800080008000800043
:103F800080008000400040004000FE3F2000900084
:103F900088008400FC1F8000900488088410822020
:103FA000A000400000010402E87F080181084210DF
:103FB000E23F0820080044124712441244124452BF
:103FC0002452106280008000800080108010BE09A2
:103FD000A005900290028804880884108260810005
:103FE000A00040000000F80F0808080808080808AA
:103FF00008080808F80F0808000010041008081046
:10400000042002200000FF01443F44227C2244227D
:1040100044227C2244144414E4155F0842084014EE
:1040200040224041000000000000000000000000AD
:104030000000FF7F00000000000000000000000002
:104040000000000000107F3814177F155515551516
:104050007F1500153E1500257F2508252A45C91422
:104060008A2C44240800083F3C242424122A7D1171
:104070005408540A7C3E540954087C7F5408520862
:104080004208610840008000FF7F2002280A2812B1
:10409000242222220000800010111221124812480E
:1040A000E10F0000100110011021081108090C0592
:1040B0000C030A018901480128010841084108410F
:1040C000087E080040002000F80F0808F80F0808D4
:1040D000F84F08280818FE0F000A0009C008380821
:1040E000070A00040802080204027E3E422142211F
:1040F000C22042227E2442244220422042207E20AE
:1041000042140008041284128412DF7F9512951263
:10411000951E95009F7F0504C47F140E1C159724DF
:10412000624400048000880888104400FC3F40007E
:104130002000E01F501090108808080504020205B6
:10414000C018386000020202E43F0402C01F0012DF
:10415000E87F0812C41F0701E47F8410C409040625
:104160008419602010042002FE3F80008000FC1FA4
:1041700080008000FF7F80008000FE3F4001200221
:10418000180C077040008000FF7F0000280AC80953
:10419000280AF80F8000FE3F42202222F227222424
:1041A000022802100020FE20822082248224FE2485
:1041B00008240824FF248824882488248420842038
:1041C00052282110100410047E3F100C381654257C
:1041D00093441004900488088808440520021004C1
:1041E0000C180360000EF80180008000FF7FA00221
:1041F00090048C18FB6F08080808F80F08080808D6
:10420000F80F080800140024FC7F0404F42504249B
:10421000F41514191449F25502620141800012216B
:104220001248E14F000200023E020002803F0022DD
:104230007F2204220422042112212221BF20A22055
:104240004014200840002208F4091409F0791025D0
:10425000F7234428FC2B2410E41114294C458442F4
:104260000A00F17F0000003F3E2122212221223F4F
:104270003E2122212221223F3E2122218020802016
:104280004028201000020402080208020002000276
:104290000F3E08020802080208022802180208025B
:1042A000F07F000008000800C83F081018082A0422
:1042B0000A020A0109018800880048404840484035
:1042C000887F0800080208040404DE7F120012112F
:1042D000922052401E111211120A1204120A1E11CB
:1042E00092206040000202020402F47F00020102F8
:1042F000E23F0A000800C41F471044104410441055
:10430000C41F4010400040002000FF7F100010023A
:1043100008020C02EA3F0902080208020802080229
:10432000F87F0800800084108810900890048000B6
:10433000FF7F200220022002200210421042084289
:10434000047C03000000FF7F40004000400040006C
:10435000400240044008401040104000400040002F
:104360004000400040008000FE7F02400120F80F26
:1043700000000000FE3F2002200220021022102236
:104380000822063C080808090409041192109F201D
:104390004820A45F02111F1102110011981087100C
:1043A000421420080000FF03000200220012000A4D
:1043B0000006000A00120022000400040048005019
:1043C000006000400000C01F5E105210D21F5E103F
:1043D0005210D21F5E225212520C52045E08521129
:1043E000C06040000000C43F482048204120C23F38
:1043F000522050204820C83F4720442044204420D9
:10440000C43F40200402FC7E1209A1108000FC1F62
:1044100080008000FF7F00000004FE3F10042004A5
:1044200020050002100210020802C43F120210020E
:10443000E87F0C080A08E97F080848088808880807
:10444000080A080410041004FF7F100490044001BF
:10445000200210040C18F367100410041015101239
:104460001010E01F40004010FC0B40044002FF7F92
:104470008000400030081807F400121011101010CE
:10448000E01F000000027F04947F14007F1155118B
:10449000D52A554475004304C17F7F04410441047B
:1044A0007F0441048810A812A412A20AE97B082400
:1044B0000428F62B0528E42924292415241324296B
:1044C00014280C4400389F070404C47F1F04953F40
:1044D0009535952E9B3F1104913F1F04D17F11000C
:1044E0009F2A51548000841084108410FC1F4000C7
:1044F0004000E00F10082808440480020001C000BA
:10450000380007000000FC1F841084108410FC1F7A
:10451000841084108410FC1F841084108410821076
:10452000821401080000FC0F4000400040004000E1
:10453000FE3F20012001200110011001082104216B
:10454000023E010088008800883F5800AA1F8A1098
:104550008A128914E87F881048124814C83F08104E
:10456000080A0804082010200020FF2510248824B1
:1045700084247E242024902448242424332048208A
:1045800084280311400080000001F8008020801082
:10459000BE09A005A00290029004880884108360E0
:1045A000A000400000020001BF3F88248824843F0F
:1045B000BC24A622A63F2509A408E47F3C082408C1
:1045C00004080008000000000000000000000000D7
:1045D0000000000000E001000000C0030000C080F7
:1045E000030000C001000000E0010800C0E0003E40
:1045F000008073C07F00003E7E3800001E0C380033
:10460000000E0C1800000F8C19008009EC1900C076
:10461000083C1800301C0C0C00001C0C0C00001E88
:104620008C6F00001EF8E400001B18E00080196881
:1046300030008019C81800C0188C090060180C07D9
:104640000030180C0E0018180C3C0004180CF80070
:1046500000180CF203001C0CE13FC00CCCC01F8002
:104660000F7C0000000F3C000000061C0000000250
:104670001C000000000C0000000000000000000012
:10468000000000000000000000000000000000002A
:10469000000000000000000000000000000000001A
:1046A0000000001F000000F83F0000E0FF030000D2
:1046B000E06700000000E000000000E00000000CE7
:1046C000E00000001CE000000018E00000000860AE
:1046D000FC07000CF0FF0F008CFF000000FE7B00C9
:1046E00000003E7C000000066C000000006E000030
:1046F00000006700000000E300000080E10000000F
:10470000C0E1000000E0E000000070E000000038C0
:10471000E00000001CE000000006E000008003E074
:104720000000C000E000000000E0000000006000A9
:104730000000007E000000007C0000000078000007
:104740000000300000000010000000000000000029
:104750000000000000000000000000000000000059
:10476000000000000000000000000007000020E042
:104770001F0000E07F3E0000E0001E0000C0001CA3
:104780000000C0000C0000C0000C0000C0000C00C5
:1047900000C0000C0000C0600C0000C0FF0C000056
:1047A000C0000C0000C0000C0000C0000C0000C0E5
:1047B000000C0000C0000C000060780C0000E07FDE
:1047C0000C000060000C000060000C000070000C89
:1047D000000030000C000030000C000018000C003D
:1047E0000018000C00000C000C00000C000C000075
:1047F00006000E000003E00F008001C00F00C000A3
:10480000800F006000000F00100000060000000094
:104810000000000000000000000000000000000098
:104820000000000000000000000000000000000088
:1048300000180000000038000000003C006000008C
:104840001C00FE01001CFEEF03000EFEE001000E46
:10485000C0E1000007C0E1180003C0E03F8003C0D2
:10486000FE3F8001F07F00C0E3FF7000C086E130B2
:10487000006006E0300030066030001006E07F0087
:104880000806FC070004C67F000000067100000057
:104890000670000000063000000006380000000628
:1048A000380000000618000000061C000000070E7B
:1048B000000000070600000003030000008303005F
:1048C0000000C300000000620000000010000000B3
:1048D00000000000000000000000000000000000D8
:1048E00000000000000000000000000000000000C8
:1048F00000000000000000000000000000000006B2
:10490000000000001C000000003C000000003C0013
:104910000000001C000000000E000000000E00005F
:104920000000070000000007000000000700000072
:1049300080030000008005000000C009000000C0E6
:1049400018000000E030000000706000000030E05F
:1049500000000038C001000018800300000C0007B0
:1049600000000E000F000007001E008003003C0046
:10497000C00100F800E00000F803300000F01F184C
:104980000000E07F000000000000000000000000C8
:104990000000000000000000000000000000000017
:1049A0000000000000000000000000000000000007
:1049B000000000000000000020000000036006006E
:1049C0000007E01C000006703800000630300000D0
:1049D000063000000006180000000618C00100069E
:1049E0000CF801003E8E3F000076CE0F0020660BD3
:1049F0000C00308619EC003086087E003046C80F67
:104A0000003026080C00380608CC00380608FC00E8
:104A10001006C81F001006080C0000060C0C000051
:104A2000060CFC030006EC3F000006FC000000063C
:104A30000C000000070400000007008007000711B9
:104A40001C0F008731181E008371381C00C36030B2
:104A50003800E240003000E200000000600000008A
:104A60000000000000000000000000000000000046
:104A70000000000000000000000000000000000036
:104A8000C000000001C0030000078007000007000D
:104A900006000006000000000600F001000600FF0E
:104AA000000006F01F000006F00000007E0060001D
:104AB00000F618E00000E63870000086183000109C
:104AC000060C380030060CEC0030063EC6013006FD
:104AD0003382013886200000180680030018068003
:104AE000C31F180600FF3F0806F80F0000E61F036B
:104AF0000000860103000007000300000700030018
:104B00000007000300000700030000070003000087
:104B10000700010000030001000003000100000283
:104B20000001000000000100000000010000000082
:104B30000100000000000000000000000000000074
:104B400000000000000000001C0000000038000011
:104B5000000038000000003800000000383E00006F
:104B600000303C000000307800008030300000C091
:104B700033000000C033000000E020000000386077
:104B80000000003C601E000060E00F0000E0F80143
:104B90000000C0DF000000E0C3200000FFC0600094
:104BA000C0CF80710000C184310000C00339000013
:104BB000C0001B0000F8000F0000DE000600C0C7A8
:104BC000000F00F0C1800F0060C0C0181000C0705E
:104BD000381000E01C7010007C00E018007800C065
:104BE00019007000801F002000001F000000001E40
:104BF000000000001800000000000000000000009D
:104C0000000000000000000000000000060000009E
:104C1000000E000000011E0000000F1E0000001E1C
:104C20000E00000C1C070000381C03000078100365
:104C300000007080010000608000000000C0C0071C
:104C40000000C0FF0F00F0FFFF03F8FF430000F07B
:104C5000E1C0000000F082010000701E0300003877
:104C60001C060000180C1C00000C8C3800000EFC08
:104C7000F10000E7FFE00180C30DE00FC0010CC0B0
:104C80007F60000C1F0F3000FC3F0008FEFF00009B
:104C900000FE0C000000000C000000000C000000F2
:104CA000000C000000000C000000000C00000000E0
:104CB0000C000000000C000000000C0000000004CC
:104CC00000000000000000000000000000000000E4
:104CD000000000000000000C000000003800000090
:104CE000003800000000180000000018000000005C
:104CF00018008003001800F807001880FF00001853
:104D0000FC0F000018300C000018000C0000F80127
:104D10000E0000FF010600F01FC00700001C80030A
:104D200000001C800300001E800300007EC0030002
:104D300000FBE1730000DB61E303809931C30FC026
:104D40001818030F60180C031E201806031C1018F7
:104D500003031808980003000418000300001C0057
:104D60000300000C000300000C000300000C000313
:104D7000000008000300000800020000000000001E
:104D80000000000000000000000000000000000023
:104D90000000000000000000000000000000000013
:104DA00000000000000000000000000300000E00F2
:104DB0000700001C000700001C000300001C80030B
:104DC00000000E800100000E8001000006C00100FE
:104DD0000087C0000000E3C3F00080DF63FC0380B5
:104DE000C5E1C707C0C030C001C02010600060022C
:104DF0000820003006640000100EC001001806C034
:104E000000000406C000000006C000000006C0004C
:104E1000000006E0010000866003000066600200FA
:104E20000036300600001F300C00000F18180080FC
:104E3000070C7800800306F000800303E003808104
:104E400000C00F004000801F0000000000000000B4
:104E50000000000000000000000000000000000052
:104E60000000000000000000000000000000000042
:104E700000008007000000F80F0000F09F0F000006
:104E800070800700007080030000708001000070D7
:104E900080010000708001000030F8010000F07F08
:104EA000000000F0030000003004000000300800A3
:104EB00000003830000000186000000018C0010039
:104EC000000C800300000C000F000006001E000014
:104ED00087077C0080030FF803C0011EF01FE0006D
:104EE0001CE01F30000000000C000000000000006B
:104EF0000000004000000000C003000000800F0020
:104F00000000001F000000001E000000001C000048
:104F10000000180000000010000000000000000069
:104F20000000000000000000000000000000000081
:104F30000000000000000000000000000000000071
:104F40001C000000E07F0000E03F7C0000FF017CCF
:104F500000001E001E00000000070000008001008D
:104F60000000C00000000060000000001C00000005
:104F70000038000000007800000000380000000049
:104F80003000000000300000000030000000003061
:104F90000000000030000000003000000000300081
:104FA0000000003000000000300000000030000071
:104FB0000000300000000030000000003000000061
:104FC0000038000000803F000000003F00000000AB
:104FD0001E000000001C000000000C00000000008B
:104FE00000000000000000000000000000000000C1
:104FF00000000000000000000000000000000000B1
:105000000000001C000000803F000003FE3D000087
:10501000FE031C00000C001C00000C001C00000C17
:10502000600C00000CE00C00000C600C00000C7028
:105030000C00004C700C00008C300C00000C310C8B
:1050400000000C1B0C00000C1E0C00000C1C0C00C3
:10505000000E1C0C0000063E0C0000063E0C00007A
:1050600006730C000087E318000083E1180000C3FA
:10507000C019008061C039108019803110C004004F
:105080007018600000E018300000C01F08000080A9
:105090001F000000001F000000001E0000000000B4
:1050A0000000000000000000000000000000000000
:1050B00000000000000000000000000000000000F0
:1050C00000000000000000000000F007000080FF6A
:1050D000010000E01F000000000E000000000C00B6
:1050E0000000000CF0000000CCFF030001FF80076F
:1050F00080FF0C800F80010CC003C001CC4300C0B6
:10510000780C0700E0700C000060400E00002000EA
:10511000CE010000388E030000780C02000060040D
:10512000000000000400000000800F000000FF1FCE
:105130000000FE033C000018001C000000001C00E2
:105140000000781C0000F0FF0C0000E0010C0000E3
:1051500000000E0000000006000000C00F0000E08C
:10516000FF0F0000FC07000000000000000000002E
:10517000000000000000000000000000000000002F
:10518000000000000000000000000000000003001C
:105190000000F00F0000E00F1F0000C0000E000034
:1051A000C0010600008071060000807F07000080BB
:1051B000010300008001030000000103000000E182
:1051C000030000007F01000000010000000000FE5D
:1051D000000000E0FF000000FF000000FC370000BE
:1051E000C03F30000080233000000070300E00000F
:1051F00070F01F000078F001000078300000009C83
:10520000310000000E33000000073E0000000338AC
:1052100000008001F00000C000E003006000C03F1B
:1052200000180000FF0F000000FE3F000000F80320
:10523000000000000000000000000000000000006E
:10524000000000000000000000000000000000005E
:105250006000000000E001000000E00000001EE02F
:105260000000003E603C0000387078000030307074
:105270000000003020000000180000000018C003EB
:1052800000000CF80300001C7F00000C9E1F0000B3
:105290003F333800C03F311800FC9C30D801104C1F
:1052A00010F801000C903F00000C101800000C10CA
:1052B0001800000C101800000C10F803000C10FE71
:1052C00001000C911F0000CE101800006E10180095
:1052D000003E10980F001F18FC3F000FD87F000001
:1052E00007F8010000031800000002180000000089
:1052F0001800000000180000000018000000001056
:10530000000000000000000000000000000000009D
:1053100000000000000000300000000070000000ED
:10532000007000000000700000000070000000002D
:1053300070000000007000000000700000000070AD
:10534000000000007000000000F007000E00F003F5
:10535000F03F00FEF8FF0FC07FF01F0080710038A3
:1053600000007001380000F00038000070003800C4
:105370000038003000003C00300000370030008072
:1053800033003000E031003000FC30003000783075
:1053900000300030300030000030003000003000BD
:1053A0003000003F003800003E403800003C803FA5
:1053B000000038003F000010001E000000000C003C
:1053C00000000004000000000000000000000000D9
:1053D00000000000000000000000000000000000CD
:1053E000000000008001000000C003000000E00396
:1053F00000000070000000000C0E820F0033C6F7A2
:105400001E0030E30E0E803301060E00F300060C82
:1054100000F207060C00F8003E0C803F38760CFCCA
:105420003970660C383C60060C00F607060E003733
:1054300007060D803300870DC031C0C60C60307880
:10544000660C30C0373E0C08FC0F360CE01B0E0615
:105450000CE01806060CE0D806060CC07E06060C0A
:10546000C01906060CC018E3070E8018C3E70F80AA
:10547000FF83C30F800101830F800001000700003C
:10548000000002000000000000000000000000001A
:10549000000000000000000000000000000000000C
:1054A0000000000000000000000F000000000F00DE
:1054B0000000000700007000030000E08001000011
:1054C000C081000000C0410006008021F01F0000E4
:1054D000E0FF3F00E0FF0100F8FF001800E00100DE
:1054E0007000000000700000C000700000F0437009
:1054F00000008FC361000082C361000082C36100AD
:105500000002836000003E836000000283600000B0
:1055100002C360000002C360000013C36000003FCC
:10552000C360000003836000000303600080830306
:1055300060008081036000809103600080E103626D
:105540000080C0037C0000800178000080007000B3
:10555000000000300000000000000000000000001B
:10556000000000000000000000000000000000003B
:1055700000000000000000000000000E000000001D
:105580003C000000073C0000000E1C0000001E1C38
:105590000000000E1C00000E0E1C00001E0C1C0063
:1055A000001C0C0C00001C0C0C00001C0C0C0C0053
:1055B0001C0CFC3F001CFCFF3F00FCFF0D00FCFF2F
:1055C0000F0C00F81F0C0C0000180C060000180C43
:1055D000060000180C060000180C06000018FC0F4E
:1055E0000000183C0000001808000000180000002F
:1055F000001800000000180078000018F0FF0100FB
:10560000F8FFFF0100FC0700000018000000000088
:10561000000000000000000000000000000000008A
:10562000000000000000000000000000000000007A
:105630000000000000000000000000001E0000004C
:10564000003C0000000018000000001800000000EE
:105650001800E001001800FC030018D87F000018B3
:10566000F80100001838000000D831000000FC31BB
:105670000000C07F300000F01F30C001001C30FC73
:1056800007001CF0DF07003E30800300EF30C00150
:1056900000CB31C000808931C000C00830E000601C
:1056A00008F0FF00600870000010083000000808D3
:1056B000300000040C300000000C300000000C38FA
:1056C0008007000CB8FF1F000CF8FF1F000C100033
:1056D00000000C000000000C000000000C000000A6
:1056E00000000000000000000000000000000000BA
:1056F00000000000000000000000000000000000AA
:10570000000300006000070000E000070000C00088
:10571000030000C080FF0000F8FFFF0100FF8001D0
:1057200000008080000000804C000000000E00009F
:1057300000000EFC030000FFFF07C0FF1F000080F9
:10574000BF030000008001000000C0800F0000E0E7
:10575000FF1F0000F0001E0000B8000E00009C00BB
:10576000060000868007000083FF0700C08000005D
:1057700000000018F001000038E00300017080070D
:1057800000216000078021000804C041001800C00B
:10579000C1003000C080037000C000FFFF000000A7
:1057A000FCFF000000800F0000000000000000006F
:1057B00000000000000000000000000000000000E9
:1057C00000000000000000000000000000000000D9
:1057D000000004000000001C000000003800000071
:1057E0000018000000001800000000180000000869
:1057F000183C00000818F000000C18E001000E181A
:10580000C003000E1880030007180000800718006E
:105810000000031800000001100000000004000058
:1058200000003C00000000380000000018000000EC
:105830000018000000001800000000F81F0000F031
:10584000FF1F0000F01F00000000180000000018FB
:1058500000000000180000000018F0010000FEFF2A
:1058600007E0FFFFFF0FC01F000000000000000066
:105870000000000000000000000000000000000028
:105880000000000000000000000000000000000018
:1058900000000000000001000001800300000F80F4
:1058A0000300000E800100000EC00000000E6038F2
:1058B00000000E607000000C30E000000C18DF00EB
:1058C000000CFC8300006C7C0000007C1C0000804D
:1058D0003F080000E00F380000000C1C7E00000CA8
:1058E000CC1F00000CF60300000CC30100000CC02C
:1058F0000100006CC0E11F001CC0FF1F008FFF01F2
:105900000080C3C70100F001E00200F8006006005B
:105910003000600C00000030180000003838000033
:10592000001C700000000EE001008003E007006032
:1059300000C03F0000000000000000000000000068
:105940000000000000000000000000000000000057
:105950000000000000000000C00000000080030004
:10596000000080030000C0810300008003030000EA
:10597000800103000080010300008001C303008058
:1059800001FF030080011F00E0FF010300C09F0131
:10599000030000800103000080010300008001C1BA
:1059A0000000C001FF0180FF017F00008F010100A6
:1059B00000800101000080010100008081010000E1
:1059C0008081010700E081FF0FE0BF81FF03F887BE
:1059D000810100708081010000C081010000C08150
:1059E000010000C080010000C080010000C08001F3
:1059F0000000C080010000808001000000800100E4
:105A00000000000000000000000000000000000096
:105A10000000000000000000000000000000000086
:105A200000010000000003000006800300000C805D
:105A30000100001CC03C00000E607B0000066038C6
:105A4000000022301C000063F80F0000E11806007F
:105A50008071000100C030806000E018C0FF00E0ED
:105A60009FFF0100200CE0000000047060000006B1
:105A700038700000030C300080311E1800C00F7316
:105A80000C00C083F0020080009803000040CC07A7
:105A9000000038E21D00008E717300C00338E3017E
:105AA000FC001CC31F780006831F100003030000C6
:105AB000C00003000000000300000000030000001D
:105AC000F803000000E001000000C000000000003A
:105AD00000000000000000000000000000000000C6
