:020000040800F2
:1000000030060020C10100086517000861150008CE
:1000100061170008CD020008071E0008000000005C
:100020000000000000000000000000006B17000846
:10003000D102000800000000691700086D170008D1
:10004000DB010008DB010008DB010008DB01000820
:10005000DB010008DB010008DB010008DB01000810
:10006000DB010008DB010008DB010008DB01000800
:10007000DB010008DB010008DB010008DB010008F0
:10008000DB010008DB010008DB010008DB010008E0
:10009000DB010008DB010008DB010008DB010008D0
:1000A000DB010008DB010008DB010008DB010008C0
:1000B000DB010008DB010008DB010008DB010008B0
:1000C000DB010008DB010008DB010008DB010008A0
:1000D000DB010008DB010008DB010008DB01000890
:1000E000DB010008DB010008DB010008DB01000880
:1000F000BD180008DB01000851180008DB010008EA
:10010000DB010008DB010008DB010008DB0100085F
:10011000DB010008DB010008DB010008DB0100084F
:10012000DB010008DB010008DB010008DB0100083F
:10013000DB010008DB010008DB010008DB0100082F
:10014000DB010008DB010008DB010008DB0100081F
:10015000DB010008DB010008DB010008DB0100080F
:10016000DB010008DB010008DB010008DB010008FF
:10017000DB010008DB010008DB01000800000000D3
:10018000DB010008DB010008DB010008DB010008DF
:10019000DB010008DB010008DB010008DB010008CF
:1001A000DB010008DB010008DB010008DFF80CD0F0
:1001B00000F07AF800480047651E0008300600206D
:1001C0000648804706480047FEE7FEE7FEE7FEE7F1
:1001D000FEE7FEE7FEE7FEE7FEE7FEE7351800086C
:1001E000AD0100082DE9F05F0546002092469B46D0
:1001F00088460646814640241BE02846414647463D
:10020000224600F041F853465A46C01A914110D395
:1002100011461846224600F028F82D1A67EB01080F
:100220004F4622460120002100F01FF817EB00097D
:100230004E41201EA4F10104DFDC484631462A4627
:100240004346BDE8F09FD2B201E000F8012B491E01
:10025000FBD270470022F6E710B513460A46044663
:100260001946FFF7F0FF204610BD202A04DB203A94
:1002700000FA02F1002070479140C2F1200320FAF9
:1002800003F3194390407047202A04DB203A21FAF7
:1002900002F00021704721FA02F3D040C2F120029F
:1002A0009140084319467047064C074D06E0E06848
:1002B00040F0010394E8070098471034AC42F6D3AD
:1002C000FFF778FF181F0008381F000800BFFEE77F
:1002D000704772B600BFFEE7F8B502460B46002530
:1002E000002400200021E6E0012606FA01F51E6840
:1002F00006EA0504AC4273D15E68012E08D05E6840
:10030000022E05D05E68112E02D05E68122E13D127
:1003100090684F000326BE40B0434F00DE68BE40E9
:1003200030439060506801268E40B0431E79C6F37A
:1003300000168E4030435060D0684F000326BE4008
:10034000B0434F009E68BE403043D0605E68022ECE
:1003500002D05E68122E13D1CF0802F1200656F8A3
:1003600027004E07F70E0F26BE40B0434F07FF0E83
:100370001E69BE403043CF0802F1200646F8270030
:1003800010684F000326BE40B0431E7906F00306F6
:100390004F00BE40304310605E6806F08056B6F1F4
:1003A000805FA8D100BF00260096454E366846F40F
:1003B0008046434F3E603E46366806F480460096CF
:1003C00000BF00BF3F4E8F0856F827008E07370F3B
:1003D0000F26BE40B0433C4EB24202D100262EE072
:1003E00068E03A4EB24201D1012628E0384EB242CE
:1003F00001D1022623E0374EB24201D103261EE08E
:10040000354EB24201D1042619E0344EB24201D138
:10041000052614E0324EB24201D106260FE0314EDD
:10042000B24201D107260AE02F4EB24201D108267E
:1004300005E02E4EB24201D1092600E00A268F07C0
:100440003F0FBE4030431F4E8F0846F82700284E0E
:100450003068A0435E6806F48036B6F5803F00D170
:100460002043234E3060361D3068A0435E6806F49A
:100470000036B6F5003F00D120431D4E361D3060DA
:10048000361D3068A0435E6806F48016B6F5801FFE
:1004900000D12043164E08363060361D3068A04328
:1004A0005E6806F40016B6F5001F00D12043104E1A
:1004B0000C363060491C1029FFF416AFF8BD00005F
:1004C0004438024008380140000002400004024065
:1004D00000080240000C02400010024000140240DC
:1004E00000180240001C024000200240002402408C
:1004F000003C014001480068704700000C000020EB
:1005000003480068034909780844014908607047B6
:100510000C0000201400002010B50D48006840F4C5
:1005200000700B4908600846006840F4806008606D
:100530000846006840F480700860032000F0A6F8C8
:10054000002000F007F800F02BF8002010BD00009C
:10055000003C024070B504460E4800784FF47A71B2
:10056000B1FBF0F00C490968B1FBF0F5284600F04A
:1005700045FC08B1012070BD102C07D20022214695
:10058000501E00F045F80548046001E00120F2E744
:100590000020F0E7140000201800002010000020C8
:1005A00008B500BF002000901048006840F480406B
:1005B0000E4908600846006800F48040009000BFC3
:1005C00000BF00BF00200090081F006840F080506E
:1005D000091F08600846006800F08050009000BFC6
:1005E00000BF052000F052F808BD0000443802406A
:1005F00001460846002809DB00F01F0301229A404B
:1006000043099B0003F1E023C3F8002100BF7047BA
:100610002DE9F05F80460D461646002701F0F6FBF7
:10062000074639462A46334601F00700C0F1070A5B
:10063000BAF1040F02D94FF0040A01E0C0F1070A31
:10064000D14600F1040ABAF1070F02D24FF0000AB6
:1006500001E0A0F1030AD4464FF0010A0AFA09FAB0
:10066000AAF1010A0AEA020A0AFA0CFA4FF0010B8F
:100670000BFA0CFBABF1010B0BEA030B4AEA0B0480
:100680002146404601F0CAFBBDE8F09F00BF00F0E4
:100690000702064B19684FF6FF031940044B0B4342
:1006A00043EA0221014B196000BF70470CED00E0E6
:1006B0000000FA0538B5002400BF002000901D4856
:1006C000006840F080501B4908600846006800F050
:1006D0008050009000BF00BF012017490864FFF759
:1006E00009FF044607E0FFF705FF001BB0F57A7F1E
:1006F00001D9032038BD1148406800F48030B0F5BE
:10070000803FF0D101200C494864FFF7F3FE044616
:1007100007E0FFF7EFFE001BB0F57A7F01D9032059
:10072000E8E70648406800F40030B0F5003FF0D13B
:100730000020DFE74038024000000E420070004019
:1007400070B504460D460CB9012070BD58480068CC
:1007500000F00F00A84209D255490D700846006804
:1007600000F00F00A84201D00120EEE7207800F051
:10077000020002281DD1207800F00400042805D1D1
:100780004C48006840F4E0504A490860207800F086
:100790000800082805D14748006840F460404549F2
:1007A00008604448006820F0F000A168084341490F
:1007B0000860207800F00100A8B36068012807D124
:1007C0003C4808380068C0F34040B8B90120BCE795
:1007D0006068022802D06068032807D135480838CD
:1007E0000068C0F3406048B90120AEE731480838DE
:1007F0000068C0F3400008B90120A6E72D48006852
:1008000020F00300616808432A490860FFF772FE80
:10081000064609E0FFF76EFE801B41F288318842F0
:1008200002D9032091E707E02248006800F00C009D
:100830006168B0EB810FEDD11D48006800F00F003A
:10084000A84209D91A490D700846006800F00F0047
:10085000A84201D0012078E7207800F004000428A5
:1008600007D11448006820F4E050E16808431149BA
:100870000860207800F00800082808D10D480068BA
:1008800020F46040216940EAC1000A49086000F094
:1008900019F808490968C1F30311074A515CC840B7
:1008A0000649086006480068FFF754FE00204CE740
:1008B000003C024008380240001F000818000020D9
:1008C000100000202DE9F047002400250026A14655
:1008D0002548006800F00C0020B1042805D0082845
:1008E0003AD105E0DFF8849039E0DFF8849036E013
:1008F0001D48001F006800F03F041B48001F0068EF
:1009000000F4800078B11A481749091F0968C1F33B
:100910008811A0FB01700146224600233846FFF7EC
:1009200061FC05460EE011480F49091F0968C1F333
:100930008811A0FB01700146224600233846FFF7CC
:1009400051FC05460848001F0068C0F30140401CE8
:100950004600B5FBF6F902E0DFF8109000BF00BFDB
:100960004846BDE8F0870000083802400024F40043
:1009700040787D01F8B504460CB90120F8BD207817
:1009800000F00100002874D0F948006800F00C0065
:1009900004280DD0F648006800F00C00082813D198
:1009A000F348001F006800F48000B0F5800F0BD101
:1009B000EF4808380068C0F34040002859D060680C
:1009C000002856D10120D9E700BF6068B0F5803F0C
:1009D00008D1E7480838006840F48030E449083915
:1009E00008601EE06068B0F5A02F0DD1E04808381F
:1009F000006840F48020DE49083908600846006835
:100A000040F4803008600CE0D9480838006820F4D1
:100A10008030D749083908600846006820F48020F3
:100A2000086000BF606890B1FFF764FD054606E00E
:100A3000FFF760FD401B642801D903209EE7CC48E6
:100A400008380068C0F340400028F1D011E0FFF7FB
:100A500051FD054606E0FFF74DFD401B642801D916
:100A600003208BE7C24808380068C0F340400028E4
:100A7000F1D1207800F0020002285FD1BC48006864
:100A800000F00C0058B1BA48006800F00C000828CB
:100A90001CD1B748001F006800F48000B0B9B4480A
:100AA00008380068C0F3400020B1E068012801D098
:100AB000012063E7AE480838006820F0F80021699B
:100AC00040EAC100AA490839086037E0E06800B38D
:100AD0000120A8490860FFF70DFD054606E0FFF775
:100AE00009FD401B022801D9032047E7A048083828
:100AF0000068C0F340000028F1D09D480838006825
:100B000020F0F800216940EAC100994908390860DD
:100B100014E0002097490860FFF7ECFC054606E06A
:100B2000FFF7E8FC401B022801D9032026E7904884
:100B300008380068C0F340000028F1D1207800F0A8
:100B4000080008282CD16069A8B101208A490860F2
:100B5000FFF7D0FC054606E0FFF7CCFC401B02285F
:100B600001D903200AE782486C300068C0F34000D6
:100B70000028F1D014E000207F490860FFF7BAFC9C
:100B8000054606E0FFF7B6FC401B022801D903200A
:100B9000F4E677486C300068C0F340000028F1D1DB
:100BA000207800F00400042870D100277048383005
:100BB000006800F0805090B900BF002000906C48A1
:100BC0003830006840F08050694938310860084684
:100BD000006800F08050009000BF00BF0127674808
:100BE000006800F48070B0B96448006840F4807018
:100BF00062490860FFF77EFC054606E0FFF77AFCD5
:100C0000401B022801D90320B8E65C48006800F4C4
:100C100080700028F2D000BFA068012808D1544895
:100C20006830006840F001005149683108601DE0FB
:100C3000A06805280DD14E486830006840F00400D7
:100C40004B49683108600846006840F001000860C0
:100C50000CE047486830006820F0010044496831E2
:100C600008600846006820F00400086000BFA06823
:100C7000A8B1FFF73FFC054609E0FFF73BFC401B2E
:100C800041F28831884202D9032077E626E03848CD
:100C900068300068C0F340000028EED013E0FFF792
:100CA00029FC054608E0FFF725FC401B41F288318E
:100CB000884201D9032061E62D4868300068C0F3FE
:100CC00040000028EFD1012F07D1294838300068B3
:100CD00020F0805026493831086000BFA069002804
:100CE00045D02348006800F00C0008285DD0A069BA
:100CF000022845D100201F490866FFF7FBFB054687
:100D000006E0FFF7F7FB401B022801D9032035E678
:100D1000174808380068C0F340600028F1D1D4E9D2
:100D200007010843616A40EA81110122A06AC2EB0F
:100D3000500041EA00412C20005D41EA00600C496E
:100D4000091F086001200B490866FFF7D3FB054621
:100D500006E0FFF7CFFB401B022801D903200DE678
:100D6000034808380068C0F340600028F1D03FE035
:100D70000838024000004742800E474200700040A1
:100D800000201C490866FFF7B5FB054606E0FFF7A3
:100D9000B1FB401B022801D90320EFE5164800688B
:100DA000C0F340600028F2D122E0A069012800D100
:100DB000E4E51148001D066806F48001E0698142FF
:100DC00014D106F03F01206A81420FD147F6C0706E
:100DD0003040616A884209D106F44031A06A8142FC
:100DE00004D106F07061E06A814201D00120C5E5BE
:100DF0000020C3E5000047420038024070B50446B9
:100E00002546681EB0F1807F01D301200FE0681EE7
:100E10004FF0E02148610F214FF0FF3000F0FEFF5E
:100E200000204FF0E021886107200861002070BD9C
:100E300010B50346002200BF93F83C00012801D101
:100E4000022010BD012083F83C0000BF22F0FF000B
:100E5000CC6840EA040222F440708C6840EA040244
:100E600022F480604C6840EA040222F400600C68BE
:100E700040EA040222F480500C6940EA040222F4A1
:100E800000504C6940EA040222F48040CC6940EAF8
:100E900004021868426400BF002083F83C0000BFD1
:100EA00000BFCEE730B502460B4600BF92F83C00CB
:100EB000012801D1022030BD012082F83C0000BF92
:100EC000022082F83D00106844681068816824F0B0
:100ED00070041868044310684460184D1068A842F4
:100EE0001BD01068B0F1804F17D0154D1068A84284
:100EF00013D0144D1068A8420FD0134D1068A842AB
:100F00000BD0124D1068A84207D0114D1068A842AE
:100F100003D0104D1068A84205D121F08001586817
:100F2000014310688160012082F83D0000BF00206D
:100F300082F83C0000BF00BFBDE700000000014098
:100F40000004004000080040000C00400004014084
:100F5000004001400018004010B504460CB90120C3
:100F600010BD94F83D0028B9002084F83C002046CC
:100F700000F00CF8022084F83D00211D206800F0EC
:100F8000B9FC012084F83D000020E9E710B586B0E7
:100F90000446142101A8FFF75DF922492068884220
:100FA0003ED100BF002000901F48006840F00200C2
:100FB0001D4908600846006800F00200009000BF6C
:100FC00000BF00BF0020009017481438006840F0B0
:100FD00004001549143908600846006800F0040050
:100FE000009000BF00BF402001900220029000202E
:100FF000039003200490059001A90C48FFF76CF9B9
:10100000022200212C20FFF703FB2C20FFF7F0FA2F
:10101000012200212E20FFF7FBFA2E20FFF7E8FA2D
:1010200006B010BD000401404438024000080240F0
:101030002DE9F04104460D4600BF94F83C0001281C
:1010400002D10220BDE8F081012084F83C0000BFFD
:10105000022084F83D002068866826F0770626F492
:101060007F46206886602868502833D00CDC202812
:1010700050D004DC00284BD0102851D149E0302852
:1010800049D040284CD139E060282DD0702807D0B5
:10109000B0F5805F03D0B0F5005F41D10DE040E0D6
:1010A000D5E902136A68206800F0A1FC2068866810
:1010B00046F077062068866033E0D5E902136A6857
:1010C000206800F094FC2068806840F4804021682B
:1010D000886026E0EA686968206800F0CEFD50214B
:1010E000206800F08FFC1CE0EA686968206800F066
:1010F0001FFE6021206800F085FC12E0EA68696844
:10110000206800F0BAFD4021206800F07BFC08E078
:1011100000BF00BF00BF2968206800F073FC00E03A
:1011200000BF00BF012084F83D0000BF002084F80C
:101130003C0000BF00BF85E72DE9F04104460D46A5
:10114000164600BF94F83C00012802D10220BDE8F9
:10115000F081012084F83C0000BF022084F83D00AB
:1011600096B9EB68D5E90012206800F099FD206877
:10117000806920F00C002168886120688069A96876
:101180000843216888613DE0042E13D1EB68D5E95E
:101190000012206800F0E0FD2068806920F44060C3
:1011A0002168886120688069A96840EA0120216877
:1011B000886127E0082E12D1EB68D5E9001220687B
:1011C00000F0E7FD2068C06920F00C002168C861CC
:1011D0002068C069A96808432168C86112E0EB680B
:1011E000D5E90012206800F0F0FD2068C06920F405
:1011F00040602168C8612068C069A96840EA012090
:101200002168C861012084F83D0000BF002084F8F7
:101210003C0000BF00BF9AE710B504460CB901209E
:1012200010BD94F83D0028B9002084F83C00204609
:1012300000F00CF8022084F83D00211D206800F029
:1012400059FB012084F83D000020E9E7704770B5A4
:1012500004460D4635B1042D0BD0082D10D00C2DB1
:101260001CD114E02068C06840F002002168C8600A
:1012700015E02068C06840F004002168C8600EE0F6
:101280002068C06840F008002168C86007E0206856
:10129000C06840F010002168C86000E000BF00BFD7
:1012A00001222946206800F091FB2068806800F048
:1012B0000706062E05D02068006840F0010021686E
:1012C0000860002070BD000010B586B004461421EF
:1012D00001A8FEF7BFFF1249206888421DD100BF58
:1012E000002000900F48006840F001000D490860A0
:1012F0000846006800F00100009000BF00BF88159C
:10130000019002200290002003900220049001200E
:10131000059001A90448FEF7DFFF06B010BD0000EC
:1013200000000140303802400000024070B5044621
:101330000D46164600BF94F83C00012801D102205A
:1013400070BD012084F83C0000BF022084F83D00FD
:1013500036B1042E1BD0082E31D00C2E5ED145E0C4
:101360002946206800F058FB2068806940F008009A
:10137000216888612068806920F004002168886104
:1013800020688069296908432168886147E0294607
:10139000206800F079FB2068806940F400602168D3
:1013A00088612068806920F48060216888612068F5
:1013B0008069296940EA0120216888612FE0294677
:1013C000206800F09FFB2068C06940F00800216899
:1013D000C8612068C06920F004002168C8612068E5
:1013E000C069296908432168C86118E02946206856
:1013F00000F0C4FB2068C06940F400602168C86147
:101400002068C06920F480602168C8612068C069D4
:10141000296940EA01202168C86100E000BF00BFDF
:10142000012084F83D0000BF002084F83C0000BF8C
:1014300000BF85E710B504460CB9012010BD94F833
:101440003D0028B9002084F83C00204600F00CF84C
:10145000022084F83D00211D206800F04BFA012095
:1014600084F83D000020E9E708B50A4A0168914286
:101470000FD100BF002100910749096841F0010127
:10148000054A11601146096801F00101009100BF91
:1014900000BF08BD000001404438024070B504465A
:1014A0000E4601223146206800F090FA0F4920686C
:1014B000884203D00E492068884201D1012000E013
:1014C000002028B12068406C40F400402168486446
:1014D0002068806800F00705062D05D020680068A8
:1014E00040F0010021680860002070BD000001404C
:1014F0000004014070B504460D4600BF94F83C005E
:10150000012801D1022070BD012084F83C0000BFF9
:10151000022084F83D002946204600F059FB48B1DE
:10152000012084F83D0000BF002084F83C0000BF8B
:101530000120E8E72068C06820F040002168C8600A
:101540002068C06820F480402168C860012084F8C9
:101550003D0000BF002084F83C0000BF00BFD2E780
:1015600000BFFEE708B500BF0020009015480068E6
:1015700040F08000134908600846006800F08000D1
:10158000009000BF00BF00BF002000900846006828
:1015900040F0040008600846006800F00400009075
:1015A00000BF00BF00BF002000900846006840F068
:1015B000010008600846006800F00100009000BFCC
:1015C00000BF08BD3038024000B591B000200F9038
:1015D00010901C2108A8FEF73DFE20216846FEF76A
:1015E00039FE25482549086040F2E730486000216F
:1015F0002248816044F24F61C16000210161416174
:1016000080218161FFF716FF08B1FEF762FE00201E
:101610000F9010900FA91948FFF744FC08B1FEF78E
:1016200058FE6020089042F22830099000200A906D
:101630000B900C900D900E90002208A90F48FFF718
:1016400075FE08B1FEF745FE002000900190029063
:10165000039004904FF400500590002007906946D5
:101660000648FFF7E5FB08B1FEF733FE0348FFF736
:101670002BFE11B000BD0000000001401C00002046
:1016800000B58FB000200B900C900D900E9014219F
:1016900006A8FEF7DFFD0020049005900090019061
:1016A000029003902C482D490860002048600021DA
:1016B0002A4881604FF6FF71C160002101614161DC
:1016C00080218161FFF748FC08B1FEF702FE4FF46C
:1016D00080500B900BA92148FFF7AAFC08B1FEF738
:1016E000F8FD1E48FFF798FD08B1FEF7F2FD042053
:1016F000069050200790002008900A9006A91748ED
:10170000FFF7F8FE08B1FEF7E4FD00200490059015
:1017100004A91248FFF7C6FB08B1FEF7DAFD002066
:101720000090012001900020029003900022694661
:101730000A48FFF701FD08B1FEF7CBFD022000903B
:101740000190042269460548FFF7F6FC08B1FEF750
:10175000C0FD0FB000BD0000000401405C0000208F
:1017600000BFFEE700BFFEE77047704710B5FEF709
:10177000C7FE10BD00B593B0302107A8FEF76AFD83
:10178000142102A8FEF766FD00BF00200190274843
:10179000006840F08050254908600846006800F065
:1017A0008050019000BF00BF00BF00200190204882
:1017B000006840F440401E4908600846006800F494
:1017C0004040019000BF00BF012007900004089036
:1017D00002200D9041050E9119210F914FF4B47123
:1017E0001091022111910421129107A8FFF7C2F86C
:1017F00008B1FEF76EFDFEF75DFF08B1FEF769FD6B
:101800000F20029002200390002004904FF4A0507B
:1018100005904FF480500690052102A8FEF790FF36
:1018200008B1FEF756FD13B000BD0000403802407D
:10183000007000400548006840F4700003490860EB
:101840004FF00060014980390860704788ED00E082
:101850001748006800F0020098B11548001F0068A2
:1018600000F0020068B1134800881349A1F8CA00CB
:101870000020104908800E48243000680E49088076
:1018800014E00B48006800F0040078B10848001F1D
:10189000006800F0040048B1064801880648A0F836
:1018A000CC10034828300068034948807047000086
:1018B000100401400A0000209C0000200B48006832
:1018C00000F0010080B10948001F006800F001002D
:1018D00050B10648006880F00100044908600448DF
:1018E0000088401C02490880704700001004014035
:1018F0000A00002010B50268294B98420ED0B0F1C2
:10190000804F0BD0274B984208D0274B984205D0E8
:10191000264B984202D0264B984203D122F0700207
:101920004B681A431E4B984220D0B0F1804F1DD017
:101930001C4B98421AD01C4B984217D01B4B984214
:1019400014D01B4B984211D01A4B98420ED01A4B10
:1019500098420BD0194B984208D0194B984205D0A9
:10196000184B984202D0184B984203D122F440728F
:10197000CB681A4322F080034C6943EA04020260F8
:101980008B68C3620B688362054B984202D0084B98
:10199000984201D10B6903630123436110BD00002C
:1019A000000001400004004000080040000C00401E
:1019B0000004014000400140004401400048014053
:1019C00000180040001C00400020004030B501F02D
:1019D0001F05012404FA05F3046A9C430462046AA7
:1019E00001F01F0502FA05F52C43046230BD30B545
:1019F0000C46816821F47F4142EA032525432943AF
:101A0000816030BD0A46816821F0700142F0070311
:101A1000194381607047000030B5056A25F0010563
:101A20000562026A4368846924F0700424F00304A8
:101A30000D682C4322F002028D682A43104DA84203
:101A400000D103E00F4DA84206D100BF22F00802EA
:101A5000CD682A4322F00402094DA84202D0094D64
:101A6000A84207D123F4807323F400734D692B43FC
:101A70008D692B43436084614D684563026230BDCC
:101A8000000001400004014030B5056A25F0100552
:101A90000562026A4368846924F4E04424F44074D3
:101AA0000D6844EA052422F020028D6842EA0512FE
:101AB000124DA84200D103E0114DA84207D100BF4A
:101AC00022F08002CD6842EA051222F040020B4D5E
:101AD000A84202D00A4DA84209D123F4806323F41E
:101AE00000634D6943EA85038D6943EA85034360DA
:101AF00084614D688563026230BD000000000140D2
:101B00000004014030B5056A25F480750562026A5B
:101B10004368C46924F0700424F003040D682C4366
:101B200022F400728D6842EA0522124DA84200D1CB
:101B300003E0114DA84207D100BF22F40062CD6836
:101B400042EA052222F480620A4DA84202D00A4DE0
:101B5000A84209D123F4805323F400534D6943EA8A
:101B600005138D6943EA05134360C4614D68C5637D
:101B7000026230BD000001400004014030B5056A3A
:101B800025F480550562036A4468C26922F4E04284
:101B900022F440720D6842EA052223F400538D6856
:101BA00043EA0533084DA84202D0084DA84204D1AB
:101BB00024F480444D6944EA85144460C2614D6850
:101BC0000564036230BD00000000014000040140D4
:101BD0002DE9F04105460C462868866826F0700617
:101BE0006068064326F0070620680643286886607A
:101BF000606800F00F0100293BD10011082838D29D
:101C0000DFE800F0333435360B272D04D4E9031315
:101C1000A2682868FFF7EBFE2CE02068052802D1B7
:101C20000120BDE8F0812868D0F820802868006A8B
:101C300020F00100296808622868876927F0F0070A
:101C4000206947EA0017286887612868C0F8208063
:101C500010E02269A168286800F00FF80AE0226904
:101C6000A168286800F064F804E000BF00BF00BF6E
:101C700000E000BF00BF0020D3E730B50B4614469C
:101C8000026A056A25F001050562816921F0F0010B
:101C900041EA041122F00A021A438161026230BD56
:101CA00070B50C461546066A26F001060662816983
:101CB000026A184EB04214D0B0F1804F11D0164EC7
:101CC000B0420ED0154EB0420BD0154EB04208D0E7
:101CD000144EB04205D0144EB04202D0134EB04262
:101CE00001D1012600E000261EB121F003012943A5
:101CF00001E041F0010121F0F001F02606EA0316AF
:101D0000314322F00A0204F00A0632438161026282
:101D100070BD0000000001400004004000080040C9
:101D2000000C004000040140004001400018004049
:101D300030B50B461446056A25F010050562816929
:101D4000026A21F4704141EA043122F0A00242EA21
:101D500003128161026230BD70B50C461546066AF9
:101D600026F0100606628169026A21F4407141EA98
:101D7000052121F470414FF4704606EA03363143E1
:101D800022F0A002A02606EA041632438161026214
:101D900070BD70B50C461546066A26F4807606625C
:101DA000C169026A21F00301294321F0F001F02604
:101DB00006EA0316314322F420624FF4206606EA55
:101DC00004263243C161026270BD70B50C461546EF
:101DD000066A26F480560662C169026A21F44071DF
:101DE00041EA052121F470414FF4704606EA0336BA
:101DF000314322F420424FF4204606EA04363243AF
:101E0000C161026270BD00BFFEE7000002480068C9
:101E1000C0F30220704700000CED00E010B5002870
:101E200004DB0A07130E054A135406E00A07140ED2
:101E3000034A00F00F031B1FD45410BD00E400E060
:101E400018ED00E002E008C8121F08C1002AFAD10C
:101E500070477047002001E001C1121F002AFBD12A
:101E600070470000FEF758FBFFF784FCFFF77AFB92
:101E7000FFF7AAFBFFF704FC00211A48FFF70EFB4F
:101E800000211948FFF7E3F904211748FFF7DFF9AC
:101E900015480068C06840F0010013490968C8602F
:101EA00011480068006840F004000F4909680860A4
:101EB00016E00E4800880D49B1F8CA1000EB014049
:101EC000801C0B49086009484188B0F8CC0001EB40
:101ED0000040801C0749086007480088074948639C
:101EE000E7E700001C0000205C0000209C000020B0
:101EF0000000002004000020080000200000014035
:101F000000000000000000000102030406070809A9
:101F10000000000001020304381F00080000002038
:101F20001C000000441E0008541F00081C00002074
:101F300014060000541E000800000000000000000D
:101F40002823000000000000100000000100000035
:041F50000024F40075
:04000005080001AD41
:00000001FF
