:020000040800F2
:1000000050040020C10100083B0F00088B0E0008BF
:10001000390F0008B1040008E910000800000000D2
:100020000000000000000000000000003F0F00087A
:10003000B3040008000000003D0F0008410F000855
:10004000DB010008DB010008DB010008DB01000820
:10005000DB010008DB010008DB010008DB01000810
:10006000DB010008DB010008DB010008DB01000800
:10007000DB010008DB010008DB010008DB010008F0
:10008000DB010008DB010008DB010008DB010008E0
:10009000DB010008DB010008DB010008DB010008D0
:1000A000DB010008DB010008DB010008DB010008C0
:1000B000DB010008DB010008DB010008DB010008B0
:1000C000DB010008DB010008DB010008DB010008A0
:1000D000DB010008DB010008DB010008DB01000890
:1000E000DB010008DB010008DB010008DB01000880
:1000F000DB010008DB010008DB010008DB01000870
:10010000DB010008DB010008DB010008DB0100085F
:10011000DB010008DB01000801100008DB0100081A
:10012000DB010008DB010008DB010008DB0100083F
:10013000DB010008DB010008DB010008DB0100082F
:10014000DB010008DB010008DB010008DB0100081F
:10015000DB010008DB010008DB010008DB0100080F
:10016000DB010008DB010008DB010008DB010008FF
:10017000DB010008DB010008DB01000800000000D3
:10018000DB010008DB010008DB010008DB010008DF
:10019000DB010008DB010008DB010008DB010008CF
:1001A000DB010008DB010008DB010008DFF80CD0F0
:1001B00000F06CF900480047951100085004002039
:1001C0000648804706480047FEE7FEE7FEE7FEE7F1
:1001D000FEE7FEE7FEE7FEE7FEE7FEE7E50F0008C5
:1001E000AD0100082DE9F05F0546002092469B46D0
:1001F00088460646814640241BE02846414647463D
:10020000224600F0D6F853465A46C01A914110D300
:1002100011461846224600F0BDF82D1A67EB01087A
:100220004F4622460120002100F0B4F817EB0009E8
:100230004E41201EA4F10104DFDC484631462A4627
:100240004346BDE8F09FD2B201E000F8012B491E01
:10025000FBD270470022F6E710B513460A46044663
:100260001946FFF7F0FF204610BD2DE9F04D81EA59
:10027000030404F0004B21F0004514464FF0000A3F
:1002800023F0004150EA050220D054EA01021DD0BB
:10029000C5F30A570246C5F31303C1F31300C1F3B4
:1002A0000A5640F4801543F48013A7EB0608101B90
:1002B000D64608F2FD3873EB050002D308F10108B9
:1002C00001E092185B41B8F1000F03DA002001460B
:1002D000BDE8F08D00204FF48011064684460EE004
:1002E000171B73EB050705D3121B63EB05030643CE
:1002F0004CEA010C49084FEA300092185B4150EA81
:100300000107EDD152EA030012D082EA040083EA29
:100310000501084305D0101BAB4106D20122002382
:1003200006E000224FF0004302E06FF0010253109C
:100330001AEB06004CEB085110EB0A0041EB0B01E5
:10034000BDE8F04D00F045B80EB540F233410291E2
:100350000021CDE900110A460B4600F049F803B030
:1003600000BDC1F30A5210B5C1F3130140F2FF33CF
:1003700041F480119A4201DA002010BD40F233436B
:100380009A42A2F2334203DC524200F012F810BD4E
:10039000904010BD202A04DB203A00FA02F1002030
:1003A00070479140C2F1200320FA03F319439040B3
:1003B0007047202A04DB203A21FA02F0002170471E
:1003C00021FA02F3D040C2F12002914008431946BD
:1003D000704710B5141E73F1000408DA401C41F197
:1003E000000192185B411A4301D120F0010010BDB9
:1003F0002DE9F04D92469B4611B1B1FA81F202E02F
:10040000B0FA80F220329046FFF7C4FF04460F4650
:1004100040EA0A0041EA0B0153465A46084313D00A
:10042000114653EA010019D0C8F140025046FFF7C7
:10043000C0FF05460E46504659464246FFF7AAFF02
:10044000084305D0012004E020463946BDE8F08D80
:100450000020054346EAE0762C4337430A986305BB
:10046000E40AA0EB08000022FD0A44EA47540A30DF
:1004700002D500200146E9E7010510196941DDE9CF
:10048000084500196941BDE8F04DA2E7064C074D4B
:1004900006E0E06840F0010394E807009847103454
:1004A000AC42F6D3FFF786FED0110008F011000829
:1004B000FEE770472DE9F84F00224FF001080325B1
:1004C0004FF00F0E0B6808FA02F42340A3426ED1DE
:1004D0004E68012E05D0022E03D0112E01D0122E0F
:1004E00012D186684FEA420C05FA0CF7BE43CF687A
:1004F00007FA0CF7374387604668A6430C79C4F3C4
:100500000014944034434460C668570005FA07FC61
:100510008C6826EA0C06BC403443C4604C68022C4C
:1005200001D0122C13D1D40800EB8404A346D4F8D4
:10053000209054074FEAD46A0EFA0AF629EA06090F
:100540000E6906FA0AF646EA0906CBF82060046846
:100550000E7924EA0C0406F00306BE40264306602A
:100560004C68E4006FD53B4C266846F48046266014
:10057000246822F0030604F480440094364C34448A
:10058000A446D4F808489607360F0EFA06F7BC437F
:10059000324FB84201D100272EE0314FB84201D18D
:1005A000012729E02F4FB84202D1022724E04AE078
:1005B0002D4FB84201D103271EE02C4FB84201D184
:1005C000042719E02A4FB84201D1052714E0294F2A
:1005D000B84201D106270FE0274FB84201D10727C3
:1005E0000AE0264FB84201D1082705E0244FB8425F
:1005F00001D1092700E00A27B7402743CCF8087843
:10060000204E34684F689C43FF0300D51C43346080
:100610001C4E361D34684F689C43BF0300D51C43F5
:100620003460184E083634684F689C43FF0200D58A
:100630001C433460134E0C3634684F689C43BF0231
:1006400000D51C433460521C102AFFF43BAFBDE8B8
:10065000F88F0000443802400030014000000240A2
:100660000004024000080240000C0240001002405A
:100670000014024000180240001C0240002002400A
:1006800000240240003C01400AB181617047090426
:10069000FBE7000001488068704700000000002070
:1006A0000248816802781144816070470000002090
:1006B0000B4810B5016841F400710160016841F414
:1006C00080610160016841F480710160032000F0E5
:1006D00071F8002000F006F800F024F8002010BDAA
:1006E000003C024070B50D4D04464FF47A712878F5
:1006F000B1FBF0F00A490968B1FBF0F000F01EFB15
:1007000048B9102C07D200222146501E00F032F8C2
:1007100000206C6070BD012070BD00000000002052
:100720000C0000200B4882B0016841F48041016058
:10073000006800F4804000900648001F016841F006
:1007400080510160006800F080500090052002B0E8
:1007500000F030B844380240002809DB00F01F02E6
:10076000012191404009800000F1E020C0F8001113
:1007700070470000F0B40E4B1B680C46C3F3022315
:10078000C3F10705042D00D90425191D072901D23D
:10079000002300E0DB1E012606FA05F1491E214078
:1007A00099409E40761E16403143F0BC00F09DBC3F
:1007B0000CED00E0064900F0070208684FF6FF0361
:1007C000184040EA0220034A1043086070470000C6
:1007D0000CED00E00000FA052DE9F8431748016828
:1007E00041F0805101600068154F00F080500126F3
:1007F00000903E64FFF74EFF05464FF47A78114CA7
:1008000005E000BFFFF746FF401B40450DD860687C
:10081000C003F7D57E64FFF73DFF0546464607E077
:10082000FFF738FF401BB04202D90320BDE8F88330
:1008300060688003F4D50020F8E7000040380240EB
:1008400000000E42007000402DE9F0470E46050002
:1008500065D0DFF81481D8F80000F7B200F00F007F
:10086000B04207D288F80070D8F8000000F00F00FE
:10087000B04254D128683D4C810712D5400703D5BA
:10088000206840F4E05020602878000703D52068F5
:1008900040F4604020602068A96820F0F000084320
:1008A00020602878C0072DD03049686808390128B1
:1008B00012D0022813D0032811D009688907002913
:1008C0002DDA216821F0030101432160FFF7E2FEE8
:1008D000814641F2883A0EE009688903EFE709682A
:1008E0008901ECE7FFF7D6FEA0EB0901514502D9DB
:1008F0000320BDE8F0872068696800F00C00B0EBC9
:10090000810FEFD1D8F80010404601F00F01B1423D
:1009100007D90770006800F00F00B04201D0012035
:10092000E7E72878400705D52068E96820F4E0501B
:10093000084320602878000706D52068296920F43C
:10094000604040EAC100206000F018F82168084AC1
:10095000C1F30311515CC8400649086006480068AD
:10096000FFF7C0FE0020C4E7003C02400838024008
:10097000C01100080C00002004000020154810B52C
:10098000006810F00C02144813D01449042A0FD048
:10099000082A0ED10F4C241F2268236802F03F0260
:1009A0005B0207D52068C0F38810A0FB010106E0B8
:1009B000084610BD2168C1F38811A1FB0001002386
:1009C000FFF710FC2168C1F30141491C4900B0FB4D
:1009D000F1F010BD083802400024F40040787D0199
:1009E0002DE9F84F04006ED02078DFF83C93C00763
:1009F000A9F104054AD009F104000168C1F381019D
:100A0000012908D00068C0F3810002280AD1D9F872
:100A10000000400206D52868800337D560680028AA
:100A2000E1D033E06068B0F5803F10D0B0F5A02F82
:100A3000286810D020F480302860286820F48020B6
:100A400028606068A8B1FFF725FE06460DE028681B
:100A500040F48030F4E740F480202860F7E700BFDE
:100A6000FFF718FE801B642873D828688003F7D529
:100A70000CE0FFF70FFE064605E000BFFFF70AFE99
:100A8000801B6428F0D828688003F7D42078DFF82A
:100A90009C8280074FF0000A3ED5A348001D0168E4
:100AA00011F00C0F08D00068C0F3810002280BD1B0
:100AB000D9F80000400207D42868800716D5E068FE
:100AC000012800D112E02BE1E068B8B10120C8F89C
:100AD0000000FFF7DFFD064605E000BFFFF7DAFD87
:100AE000801B0228C0D828688007F7D528682169AC
:100AF00020F0F80040EAC10028600DE0C8F800A02E
:100B0000FFF7C8FD064604E0FFF7C4FD801B02287E
:100B10001FD828688007F7D42078000722D5824E96
:100B200083486169703671B101210160FFF7B2FD40
:100B3000074604E0FFF7AEFDC01B022809D8306865
:100B40008007F7D50EE0C0F800A0FFF7A3FD074629
:100B500005E082E0FFF79EFDC01B02287DD83068CB
:100B60008007F7D42078400768D5DFF8BCB10027AC
:100B70000BF13C0BDBF80000C0000BD4DBF80010DD
:100B800041F08051CBF80010DBF80000012700F0A5
:100B900080500090674E3068C00510D4306840F433
:100BA00080703060FFF776FD009005E0FFF772FD82
:100BB0000099401A022850D83068C005F6D55A4E20
:100BC000A0686C3601280FD00528306810D020F0BE
:100BD00001003060306820F004003060A068B8B1D7
:100BE000FFF758FD00900FE0306840F00100F4E797
:100BF00040F004003060F7E7FFF74CFD0099411A20
:100C000041F28830814266D830688007F4D50EE022
:100C1000FFF740FD009007E0FFF73CFD0099411A07
:100C200041F28830814256D830688007F4D42FB121
:100C3000DBF8001021F08051CBF80010A069C8B398
:100C40003949091D0968C1F3810102294AD00228E6
:100C5000504607D0C8F8600000E03CE0FFF71AFDFE
:100C600004463BE04746C8F86000FFF713FD064620
:100C700005E000BFFFF70EFD801B02282BD8286877
:100C80008001F7D4D4E907010843A16A2A4A490838
:100C900002EB0141626A41EA8211084394F82C1088
:100CA00040EA0161C9F8001001203866FFF7F2FC44
:100CB000044606E036E000BFFFF7ECFC001B02280C
:100CC00009D828688001F7D52CE000BFFFF7E2FCC7
:100CD000001B022802D90320BDE8F88F2868800194
:100CE000F4D41FE00128F7D0D9F80000E26900F43D
:100CF0008001914214D1226A00F03F0191420FD14C
:100D000047F6C071626A0140914209D1A26A00F4BB
:100D10004031914204D1E16A00F07060884201D014
:100D20000120D9E70020D7E70438024000004742FD
:100D3000800E4742007000400000FFFF10B5401ECB
:100D4000B0F1807F01D3012010BD4FF0E02460613D
:100D50000F21601700F0C9F90020A0610720206171
:100D6000002010BD70B590F83C20012A32D001243B
:100D700080F83C40022280F83D2003685A689D6854
:100D800022F070060A6832435A60134B02689A4296
:100D900014D0B2F1804F11D0104B9A420ED0104BAC
:100DA0009A420BD00F4B9A4208D00F4B9A4205D073
:100DB0000E4B9A4202D00E4B9A4204D1496825F05C
:100DC00080031943916080F83D40002180F83C1079
:100DD000084670BD022070BD0000014000040040C4
:100DE00000080040000C00400004014000400140A9
:100DF0000018004010B5040003D094F83D0010B175
:100E000007E0012010BD002084F83C00204600F0DF
:100E10000DF8022084F83D00211D206800F000F943
:100E2000012084F83D00002010BD000008B50068D6
:100E30000B49884212D10B48016841F01001016052
:100E40000068012200F01000009000213620FFF71A
:100E500091FCBDE808403620FFF77EBC08BD0000CD
:100E600000100040403802400168CA6842F00102A8
:100E7000CA600068816801F00701062903D0016893
:100E800041F00101016000207047FEE730B587B0F6
:100E900014216846FFF7DEF911480024016841F08B
:100EA00080010160016801F080010591016841F055
:100EB0000201016000680B4D00F002000590012264
:100EC00003212846FFF7E0FB01210320CDE90214AE
:100ED000CDE9000169462846FFF7ECFA07B030BDBE
:100EE00030380240000402401CB500241148009430
:100EF0000F490194016042F22731C0E9011441F227
:100F00008731C16080218161FFF774FF08B172B63B
:100F1000FEE70848FFF7A8FF0094694605480194DA
:100F2000FFF720FF002801D072B6FEE71CBD0000CD
:100F30000010004010000020FEE7FEE770477047F9
:100F4000FFF7AEBB30B593B030216846FFF782F9AA
:100F500014210CA8FFF77EF920480025016841F014
:100F600080510160006800F0805011901C480168B9
:100F700041F4404101600068022400F440401190B7
:100F800001200090000401908001CDE90640192065
:100F900008904FF4B470CDE9090404200B90684622
:100FA000FFF71EFD08B172B6FEE7FFF715FC08B1AA
:100FB00072B6FEE70CA90F2081E831004FF4A05073
:100FC0000F904FF48050109005210CA8FFF73CFCC7
:100FD000002801D072B6FEE713B030BD40380240A1
:100FE000007000400548016841F470010160034948
:100FF0004FF00060803908607047000088ED00E025
:1010000005480169C1686FF0010101610348416849
:1010100081F0010141607047001000408082404231
:10102000F0B50268254C264D264E274F274B4FF032
:10103000804CA04209D0604507D0A84205D0B042FC
:1010400003D0B84201D0984204D122F0700E4A6811
:1010500042EA0E02A0421BD0604519D0A84217D028
:10106000B04215D0B84213D0984211D0184DA842C2
:101070000ED0184DA8420BD0174DA84208D0174DDE
:10108000A84205D0164DA84202D0164DA84203D161
:1010900022F44075CA682A434D6922F080022A432F
:1010A00002608A68C2620A688262A04201D09842E5
:1010B00001D10969016301214161F0BD00000140D6
:1010C0000004004000080040000C00400004014003
:1010D0000040014000440140004801400018004029
:1010E000001C004000200040FEE70907090E002810
:1010F00004DB00F1E02080F80014704700F00F00DE
:1011000000F1E02080F8141D704702E008C8121FAB
:1011100008C1002AFAD170477047002001E001C1E0
:10112000121F002AFBD1704770B5054600244FF40A
:101130007A7603E0304600F005F8641CAC42F9D33F
:1011400070BD000070B50446FFF718FCFFF7FCF80F
:101150009FED0E1B53EC112BFFF787F8FFF701F9FA
:1011600001464FF0E0200023456982694C438169C4
:101170009142FCD002D2A2EB010202E0A5EB0106F3
:10118000324413440A46A342F1D370BD000000006C
:1011900080842E41FFF78CFAFFF7D4FEFFF776FE2E
:1011A000FFF7A2FE054C4FF47A75206880F001002D
:1011B00020602846FFF7B8FFF7E700008082404232
:1011C00000000000000000000102030406070809F7
:1011D000F011000800000020100000000A110008B3
:1011E0000012000810000020400400001A1100083E
:1011F0000100000010000000000000000024F400C6
:04000005080001AD41
:00000001FF
