:020000040800F2
:1000000058240020C1010008931F00082510000893
:10001000911F0008CD0200088122000800000000A6
:10002000000000000000000000000000971F000812
:100030004D03000800000000951F000899200008EB
:10004000DB010008DB010008DB010008DB01000820
:10005000DB010008DB010008DB010008DB01000810
:10006000DB010008DB010008DB010008DB01000800
:10007000DB010008DB010008DB010008DB010008F0
:10008000DB010008DB010008DB010008DB010008E0
:10009000DB010008DB010008DB010008DB010008D0
:1000A000DB010008DB010008DB010008DB010008C0
:1000B000DB010008DB010008DB010008DB010008B0
:1000C000DB010008DB010008DB010008DB010008A0
:1000D000DB010008DB010008DB010008DB01000890
:1000E000DB010008DB010008DB010008DB01000880
:1000F000DB010008DB010008DB010008DB01000870
:10010000DB010008DB010008DB010008DB0100085F
:10011000DB010008DB010008DB010008DB0100084F
:10012000DB010008DB010008DB010008DB0100083F
:10013000DB010008DB010008DB010008DB0100082F
:10014000DB010008DB010008DB010008DB0100081F
:10015000DB010008DB010008DB010008DB0100080F
:10016000DB010008DB010008DB010008DB010008FF
:10017000DB010008DB010008DB01000800000000D3
:10018000DB010008DB010008DB010008DB010008DF
:10019000DB010008DB010008DB010008DB010008CF
:1001A000DB010008DB010008DB010008DFF80CD0F0
:1001B00000F07AF800480047152300085824002072
:1001C0000648804706480047FEE7FEE7FEE7FEE7F1
:1001D000FEE7FEE7FEE7FEE7FEE7FEE73D2100085B
:1001E000AD0100082DE9F05F0546002092469B46D0
:1001F00088460646814640241BE02846414647463D
:10020000224600F041F853465A46C01A914110D395
:1002100011461846224600F028F82D1A67EB01080F
:100220004F4622460120002100F01FF817EB00097D
:100230004E41201EA4F10104DFDC484631462A4627
:100240004346BDE8F09FD2B201E000F8012B491E01
:10025000FBD270470022F6E710B513460A46044663
:100260001946FFF7F0FF204610BD202A04DB203A94
:1002700000FA02F1002070479140C2F1200320FAF9
:1002800003F3194390407047202A04DB203A21FAF7
:1002900002F00021704721FA02F3D040C2F120029F
:1002A0009140084319467047064C074D06E0E06848
:1002B00040F0010394E8070098471034AC42F6D3AD
:1002C000FFF778FF7438000894380008FEE7000054
:1002D00001681823CAB2103AB2FBF3F2054B6FF370
:1002E0000901032A9B5CC36500D9091D8165084685
:1002F000704700005438000810B5014600208B6993
:100300008A6A4FF0C07453B1B3F5005F15D072B173
:10031000012A0CD0022A0AD0032A09D104E01AB11A
:10032000012A06D0022A03D1C96AC90100D50120D9
:1003300010BDC96AA142FAD010BD002AF7D0012A27
:10034000F2D0022AF3D0032AF3D010BD7047000088
:10035000054904480860001F416941F0800141617E
:100360007047000004100140C0640240054A10605C
:10037000044808380160001F016841F00101016074
:1003800070470000C464024072B6FEE770B5B3F572
:10039000804F05D06FF0704140F82210002070BDF2
:1003A00050F82230084C2340D1E9004544EA0514B6
:1003B0008D688E892D0245EA064589692C430C43D8
:1003C0001C4340F82240E9E70000F0CFF0B50B688D
:1003D00050F82350174A1540D1E90124D1E90367A9
:1003E00022433E4332434E6932438E693243CE69E3
:1003F00032430E6A32434E6A32438E6A3243CE6AC9
:100400003243CE6B32430E6B32434E6B32432A4340
:10041000082C01D142F0400240F823204A6BB2F58B
:10042000801F05D1096819B1016841F4801101608C
:100430000020F0BD8000E0FFF0B500EB82025368C1
:100440008E8903F04044D1E9003543EA05138D68F5
:100450002D0245EA06452B430E8A0D4D05EB065647
:1004600033430E7D6F0107EB066633438E693343DA
:10047000234353600268D20207D54268098A22F4F6
:10048000700205EB0151114341600020F0BD0000F6
:100490000000F0FF2DE9F041044600F0A5F9054603
:1004A0005CB1002684F83460022084F835002068AE
:1004B000016821F0010101600DE00120BDE8F0813B
:1004C00000F092F9401B052805D920206065032023
:1004D00084F83500F2E720680068C007F0D1216891
:1004E0000A6820480240D4E901031843D4E90335DF
:1004F0002B43184363691843A3691843E3691843FE
:10050000236A18431043626A042A03D1D4E90B23F7
:100510001A431043086020684069656A20F00701AB
:1005200028460D43012704280CD1A06A0543E06A40
:1005300040B12046FFF7E0FE20B14020606584F81E
:100540003570BAE7206845612046FFF7C1FE94F890
:100550005C203F2191408160666584F83570002001
:10056000ACE700003F8010F0F0B587B0142168467A
:10057000FFF770FE1F480168002939D10121016091
:100580001D480024016841F0010101600068022556
:1005900000F0010005904FF23F00CDE9000502AAEE
:1005A00003260C2782E8D0006946144800F02EF894
:1005B0003F20CDE9000502AA694682E8D000104834
:1005C00000F024F84FF68070CDE9000502AA6946D4
:1005D00082E8D0000B4800F019F84FF6B370CDE96F
:1005E000000502AA694682E8D000074800F00EF82C
:1005F00007B0F0BD1000002038380240001402405F
:100600000018024000100240000C02402DE9F84F93
:10061000DFF894B100224FF003094FF00F0A0BF1FD
:10062000040E01250B6895402B40AB4272D14C68FB
:10063000012C05D0022C03D0112C01D0122C10D18A
:100640008668540009FA04F7BE43CF68A7403743D1
:1006500087604468AC430D79C5F300159540254388
:100660004560C468570009FA07F58E68AC43BE4080
:100670002643C6604C68022C01D0122C12D1D4083B
:1006800000EB840CDCF820605407E40E0AFA04F84E
:1006900026EA0806D1F8108008FA04F848EA0608A5
:1006A000CCF820800468AC430D7905F00305BD400B
:1006B000254305604C68E4006FD53C4C256845F443
:1006C00080452560246822F0030504F480440094EA
:1006D000374C2E19D6F808789407250F0AFA05F436
:1006E000A743344CA04201D100242EE0324CA0425A
:1006F00001D1012429E0314CA04201D1022424E09F
:100700002F4CA04201D103241FE02E4CA04202D165
:1007100004241AE041E02C4CA04201D1052414E04D
:100720002A4CA04201D106240FE0294CA04201D15D
:1007300007240AE0274CA04201D1082405E0264CFA
:10074000A04201D1092400E00A24AC403C43C6F891
:100750000848DBF800405D464E689C43F60300D530
:100760001C432C60DEF8004075464E689C43B6037F
:1007700000D51C432C600C4D08352C684E689C43FA
:10078000F60200D51C432C60074D0C352C684E68D2
:100790009C43B60200D51C432C60521C102AFFF467
:1007A00040AFBDE8F88F0000003C014044380240F3
:1007B00000300140000002400004024000080240F6
:1007C000000C0240001002400014024000180240D9
:1007D000001C024000200240002402400AB1816156
:1007E00070470904FBE7000001488068704700007B
:1007F0001800002002488168027811448160704727
:10080000180000200B4810B5016841F40071016028
:10081000016841F480610160016841F48071016008
:10082000032000F061F8002000F006F800F024F842
:10083000002010BD003C024070B50D4D04464FF441
:100840007A712878B1FBF0F00A490968B1FBF0F041
:1008500000F051FB48B9102C07D200222146501E4F
:1008600000F022F800206C6070BD012070BD000017
:1008700018000020240000200A4808B5016841F44F
:1008800080410160006800F4804000900548001F2E
:10089000016841F080510160006800F080500090D4
:1008A00008BD000044380240F0B40E4B1B68C3F38F
:1008B0000223C3F10704042C00D904241D1D072DB5
:1008C00001D2002300E0DB1E012606FA04F56D1EAE
:1008D0000D409D409E40761E164045EA0601F0BC44
:1008E00001F0CFBC0CED00E0064A00F007011068F3
:1008F0004FF6FF03184040EA012003490843106007
:10090000704700000CED00E00000FA052DE9F84307
:100910001748016841F0805101600068DFF8548099
:1009200000F0805001270090C8F84070FFF75CFF8E
:1009300004464FF47A75104E04E0FFF755FF001B94
:10094000A8420DD87068C003F7D5C8F84470FFF707
:100950004BFF044607E0FFF747FF001BA84202D900
:100960000320BDE8F88370688003F4D50020F8E721
:100970004038024000000E42007000402DE9F04770
:100980000D46040065D0DFF81491D9F80000EFB2ED
:1009900000F00F00A84207D289F80070D9F80000D3
:1009A00000F00F00A84254D120683D4E810712D5B7
:1009B000400703D5306840F4E050306020780007ED
:1009C00003D5306840F4604030603068A16820F0A2
:1009D000F000084330602078C0072DD030496068AF
:1009E0000839012812D0022813D0032811D0096831
:1009F000890700292DDA316821F0030101433160B4
:100A0000FFF7F2FE804641F2883A0EE0096889035A
:100A1000EFE709688901ECE7FFF7E6FEA0EB0801C4
:100A2000514502D90320BDE8F0873068616800F0C5
:100A30000C00B0EB810FEFD1D9F80010484601F05F
:100A40000F01A94207D90770006800F00F00A84203
:100A500001D00120E7E72078400705D53068E1683C
:100A600020F4E050084330602078000706D5306855
:100A7000216920F4604040EAC100306000F038F89D
:100A80003168084AC1F30311515CC8400649086047
:100A900006480068FFF7D0FE0020C4E7003C024093
:100AA000083802405C380008240000201C000020A8
:100AB0000448054900680968044AC1F38221515C71
:100AC000C840704724000020083802406C380008F5
:100AD0000448054900680968044AC1F34231515C81
:100AE000C840704724000020083802406C380008D5
:100AF000154810B5006810F00C01144813D0144BC1
:100B000004290FD008290ED10F4C241F216801F0B1
:100B10003F022168490207D52068C0F38810A0FB76
:100B2000030106E0184610BD2168C1F38811A1FB3E
:100B300000010023FFF756FB2168C1F30141491C66
:100B40004900B0FBF1F010BD083802400024F40069
:100B500040787D012DE9F84F040075D02078DFF84A
:100B600028A3C007AAF1040548D00AF104000168CF
:100B7000C1F38101012908D00068C0F38100022877
:100B80000AD1DAF80000400206D52868800335D57E
:100B900060680028E1D031E06068B0F5803F10D097
:100BA000B0F5A02F286810D020F480302860286885
:100BB00020F4802028606068A0B1FFF715FE06468B
:100BC0000CE0286840F48030F4E740F4802028608E
:100BD000F7E7FFF709FE801B642871D828688003B7
:100BE000F7D50BE0FFF700FE064604E0FFF7FCFD3B
:100BF000801B6428F1D828688003F7D42078DFF8B8
:100C00008C9280074FF0000B3DD59F48001D016876
:100C100011F00C0F08D00068C0F3810002280AD13F
:100C2000DAF80000400206D42868800715D5E0688D
:100C3000012809D111E0E068B8B10121C9F800101C
:100C4000FFF7D2FD064605E01AE1FFF7CDFD801B58
:100C50000228C2D828688007F7D52868216920F0C3
:100C6000F80040EAC10028600DE0C9F800B0FFF7C5
:100C7000BBFD064604E0FFF7B7FD801B02281FD826
:100C800028688007F7D42078000722D57E4F804857
:100C90006169703771B101210160FFF7A5FD06465A
:100CA00004E0FFF7A1FD801B022809D838688007FF
:100CB000F7D50EE0C0F800B0FFF796FD064605E058
:100CC00082E0FFF791FD801B02287DD838688007FD
:100CD000F7D42078400765D56B484FF000083C30CA
:100CE0000068C0000BD468483C30016841F0805176
:100CF000016000684FF0010800F080500090654FDF
:100D00003868C0050FD4386840F480703860FFF749
:100D10006BFD064604E0FFF767FD801B022853D8F1
:100D20003868C005F7D5584FA0686C3701280FD038
:100D30000528386810D020F001003860386820F0AD
:100D400004003860A068B0B1FFF74EFD06460EE023
:100D5000386840F00100F4E740F004003860F7E73D
:100D6000FFF742FD811B41F28830814263D8386829
:100D70008007F5D50DE0FFF737FD064606E0FFF7E3
:100D800033FD811B41F28830814254D83868800796
:100D9000F5D4B8F1000F05D03B483C30016821F094
:100DA00080510160A069B8B33749091D0968C1F3D2
:100DB0008101022946D00228584606D0C9F86000B1
:100DC000FFF712FD044639E035E04F46C9F86000F0
:100DD000FFF70AFD064604E0FFF706FD801B022828
:100DE00029D828688001F7D4D4E907010843A16A0B
:100DF000294A490802EB0141626A41EA821108432B
:100E000094F82C1040EA0161CAF8001001203866FD
:100E1000FFF7EAFC044605E034E0FFF7E5FC001BC1
:100E2000022808D828688001F7D52BE0FFF7DCFC02
:100E3000001B022802D90320BDE8F88F2868800132
:100E4000F4D41FE00128F7D0DAF80000E26900F4DA
:100E50008001914214D1226A00F03F0191420FD1EA
:100E600047F6C071626A0140914209D1A26A00F45A
:100E70004031914204D1E16A00F07060884201D0B3
:100E80000120D9E70020D7E704380240000047429C
:100E9000800E4742007000400000FFFF70B515460D
:100EA0000E46040003D094F8490010B107E0012079
:100EB00070BD002084F84800204600F01AF804F1C4
:100EC00008012068FFF782FA3146A2682068FFF720
:100ED000B3FAD4E901022946236BFFF757FAA16858
:100EE000206850F8212042F0010240F82120002023
:100EF00070BDFFF739BB10B5401EB0F1807F01D344
:100F0000012010BD4FF0E02460610F21601701F057
:100F1000B8F90020A06107202061002010BD70B545
:100F2000040004D094F83900002510B106E0012037
:100F300070BD84F83850204600F022F8242084F850
:100F400039002068C16821F40051C160204601F0D9
:100F500003F92068016921F4904101612068416929
:100F600021F02A0141612068C16841F40051C1604B
:100F7000E563202084F8390084F83A00002070BD31
:100F800070B586B0064614216846FFF763F920491C
:100F9000306888423AD11F480025016841F01001AD
:100FA0000160006800F0100005901A4814380168CC
:100FB00041F0010101600068694600F00100059000
:100FC0004FF4C060009002200190012002900320A5
:100FD0000390072004901048FFF718FB104C0F48AF
:100FE00020604FF0006060604020C4E9020500010D
:100FF000C4E90405A561E561256220466562FFF745
:1010000049FA08B1FFF7C0F93463A66306B070BDB2
:10101000001001404438024000000240B864024021
:10102000F81F0020FEE7000001480078704700002C
:101030000A0000200D48C168806841EA40000C4960
:10104000496B40EA81000B49096840EAC1000A493E
:1010500080F007008A7802400A70CA7802EA00032A
:101060004B7020EA02028A70C870704700824342C7
:1010700000024142000240420A00002010B504462E
:10108000002240F21F3340F2DF11104600F084FFCF
:1010900006494FF43050088004480021044A801C5F
:1010A0000480491C9142FBD310BD0000FEFF076085
:1010B00000DC05002DE9F05FFF484FF4704101802E
:1010C0005522811C0A804FF201020280AA220A8066
:1010D0004FF20202028052220A804FF20302028083
:1010E00008260E80521C028001250D804FF43042EC
:1010F00002800D220A804BF2010303800A805B1CF0
:1011000003800A804FF43643038034230B804BF274
:10111000016404800B80641C04800B804FF4314414
:1011200004800A80641C04800A80641C04800A8095
:101130004FF4374202800B80521C02800B80521CFD
:1011400002800B804FF43242028000220A804BF270
:10115000012404800A80641C04800A804FF438440F
:10116000048024240C804BF6010707800C807F1C30
:1011700007800C804FF43F4707800D804FF43347C2
:1011800007800F270F804BF2013CA0F800C00F80B2
:101190004BF2023CA0F800C00F804FF439470780A3
:1011A0000B807F1C07800B807F1C07800B804FF417
:1011B000354707800E807F1C07800E807F1C0780CC
:1011C0000E804FF44246068003260E804FF43A46C6
:1011D00006800C80761C06800C80761C06800C80B5
:1011E0004FF43C4404800A80641C048078240C8002
:1011F0004BF6024404800A804FF43D4404800A8088
:10120000641C048078240C804BF6025404800A800D
:101210004FF43E4404800A80641C048064240C80E3
:101220004FF4514404800A80641C048033240C80F1
:101230004DF2021404800A80641C04800B80641C3C
:1012400004800A80641C04803A240C804DF2061449
:1012500004800A80641C04804A240C804DF2081427
:1012600004800A80641C04805C240C804DF20A1403
:1012700004800A80641C048081240C804DF20C14CC
:1012800004800A80641C0480A6240C804DF20E1495
:1012900004800A80641C0480E5240C804DF2101444
:1012A00004800D80641C048013240C804DF2121401
:1012B00004800D80641C048054240C804DF21414AE
:1012C00004800D80641C048082240C804DF216146E
:1012D00004800D80641C0480CA240C804DF2181414
:1012E000048002240C804DF2191606800A80721CBC
:1012F00002800C80521C02800D80521C02800C80E7
:10130000521C02800B80521C02800C80521C0280F6
:1013100067220A80F21D02800C80521C0280842207
:101320000A804DF2221202800C80521C0280A422FC
:101330000A804DF2241202800C80521C0280B722D7
:101340000A804DF2261202800C80521C0280CF22AD
:101350000A804DF228110180801C04804A1C811EE5
:101360000A80DE2202804DF22A120A800480521C7A
:101370000A80F22202804DF22C120A800480521C54
:101380000A80FE2202804DF22E120A800326068079
:10139000521C0A804FF0100EA0F800E0521C0A8088
:1013A0000680521C0A8033270780521C0A80068060
:1013B000521C0A806D2202804FF452420A800022A1
:1013C00002804DF201230B8007805B1C0B800280A2
:1013D0005B1C0B804FF0340CA0F800C05B1C0B8032
:1013E00002805B1C0B803A2303804DF206230B80A6
:1013F00002805B1C0B804A2303804DF208230B8084
:1014000002805B1C0B805C2303804DF20A230B805F
:1014100002805B1C0B80812303804DF20C230B8028
:1014200002805B1C0B80A62303804DF20E230B80F1
:1014300002805B1C0B80E52303804DF210230B80A0
:1014400005805B1C0B80132303804DF212230B805D
:1014500005805B1C0B80542303804DF214230B800A
:1014600005805B1C0B80822303804DF216230B80CA
:1014700005805B1C0B80CA2303804DF218230B8070
:1014800004805B1C0B8002805B1C0B8004805B1C57
:101490000B8005805B1C0B8004805B1C0B80A0F81C
:1014A00000C05B1C0B8004805B1C0B804FF0670B43
:1014B000A0F800B05B1C01E0FEFF07600B80048019
:1014C0005B1C0B804FF08409A0F800905B1C0B8024
:1014D00004805B1C0B80A42303804DF224230B802B
:1014E00004805B1C0B804FF0B70AA0F800A05B1CC7
:1014F0000B8004805B1C0B80CF2303804DF22828D7
:10150000A1F8008004804DF22928A1F800804FF056
:10151000DE08A0F800804DF22A28A1F8008004809F
:101520004DF22B28A1F800804FF0F208A0F80080BF
:101530004DF22C28A1F8008004804DF22D240C805F
:10154000FE2404804DF22E240C800680641C0C8046
:10155000102404804DF230240C800680641C0C8022
:101560000780641C0C800680641C0C806D24048041
:101570004FF453440C800280641C0C800780641C70
:101580000C800280641C0C80A0F800C0641C0C80DD
:101590000280641C0C803A2404804DF206340C80D6
:1015A0000280641C0C804A2404804DF208340C80B4
:1015B0000280641C0C805C2404804DF20A340C8090
:1015C0000280641C0C80812404804DF20C340C8059
:1015D0000280641C0C80A62404804DF20E340C8022
:1015E0000280621C0A80E5220280A21C0A8005801B
:1015F000521C0A8013220280221D0A800580521C80
:101600000A8054220280A21D0A800580521C0A8092
:1016100082210180511C801E0180811C0D80921C42
:101620000280CA220A804DF21832028002220A8009
:101630004DF21934048000240C804DF21A360680D5
:101640000A80761C06800D80761C06800A80761C37
:101650000680A1F800C0761C06800A80761C0680F1
:10166000A1F800B0761C06800A80761C0680A1F8DE
:101670000090761C06800A80761C0680A4260E80C8
:101680004DF2243606800A80761C0680A1F800A060
:10169000761C06800A80761C06800B80761C0680ED
:1016A0000A80761C0680DE260E804DF22A360680E1
:1016B0000A80761C0680F2260E804DF22C360680BB
:1016C0000A80761C0680FE260E804DF22E3606809D
:1016D00003260E804DF22F370780A1F800E07F1C13
:1016E00007800E807F1C078033270F804DF2323831
:1016F000A0F800800E804DF23338A0F800804FF043
:101700006D08A1F800804FF45448A0F800800C80C8
:101710004DF20148A0F800800F804DF20248A0F879
:1017200000800C804DF20348A0F80080A1F800C0B2
:101730004DF20448A0F800800C804DF20548A0F856
:1017400000804FF03A08A1F800804DF20648A0F85A
:1017500000800C804DF20748A0F800804FF04A0846
:10176000A1F800804DF20848A0F800800C804DF2EE
:101770000948A0F800804FF05C08A1F800804DF205
:101780000A48A0F800800C804DF20B48A0F80080B9
:101790004FF08108A1F800804DF20C48A0F80080BD
:1017A0000C804DF20D48A0F800804FF0A608A1F87B
:1017B00000804DF20E48A0F800800C804DF20F48DA
:1017C000A0F800804FF0E508A1F800804DF2104825
:1017D000A0F800800D804DF21148A0F800804FF075
:1017E0001308A1F800804DF21248A0F800800D8087
:1017F0004DF21348A0F800804FF05408A1F8008083
:101800004DF21448A0F800800D804DF21548A0F864
:1018100000804FF08208A1F800804DF21648A0F831
:1018200000800D804DF21748A0F800804FF0CA08E4
:10183000A1F800804DF21848A0F800800A804DF20F
:101840001948A0F800800C804DF21A48A0F80080DA
:101850000A804DF21B48A0F800800D804DF21C4517
:1018600005800A806D1C0580A1F800C06D1C0580F4
:101870000A806D1C058067250D804DF2204505808E
:101880000A806D1C058084250D804DF2224505805F
:101890000A806D1C0580A4250D804DF2244505802D
:1018A0000A806D1C0580B7250D804DF22645058008
:1018B0000A806D1C0580CF250D804DF228450580DE
:1018C0000A806D1C0580DE250D804DF22A450580BD
:1018D0000A806D1C0580F2250D804DF22C45058097
:1018E0000A806A1C0280FE220A80AA1C02800E80E6
:1018F000521C028010220A802A1D02800E80521C77
:1019000002800F80521C02800E80521C02806D22C9
:101910000A804FF4554202800C80521C02800F80D6
:10192000521C02800C80511C01803426801C0680D1
:10193000491C841E218000220280491C21803A21FA
:1019400001804DF2065121800280491C21804A21EC
:1019500001804DF2085121800280491C21805C21C8
:1019600001804DF20A5121800280491C2180812191
:1019700001804DF20C5121800280491C2180A6215A
:1019800001804DF20E5121800280491C2180E52109
:1019900001804DF21051218001250580491C2180D4
:1019A000132101804DF2125121800580491C2180B4
:1019B000542101804DF2145121800580491C218061
:1019C000822101804DF2165121800580491C218021
:1019D000CA2101804DF218512180022101804DF26F
:1019E0001957278002807F1C278001807F1C278059
:1019F00005807F1C278001807F1C278006807F1C3C
:101A0000278001807F1C2780A0F800B07F1C2780E2
:101A100001807F1C2780A0F800907F1C2780018018
:101A20007F1C2780A42707804DF224572780018040
:101A30007F1C2780A0F800A07F1C278001807F1CCE
:101A40002780994603807B1C238001805B1C2380B8
:101A50004FF0DE0BA0F800B05B1C238001805B1C04
:101A60002380F22303807B1D238001805B1C238065
:101A7000FE230380FB1D2380032303804DF22F5799
:101A80002780F446A0F800E07F1C278003807F1C9D
:101A90002780332707804DF23257278003807F1C31
:101AA00027804FF06D08A0F800804FF4564727803C
:101AB00002807F1C2780332707804DF20267278032
:101AC00002807F1C278006807F1C278002807F1C6D
:101AD00027803A2707804DF20667278002807F1C07
:101AE00027804A2707804DF20867278002807F1CE5
:101AF00027805C2707804DF20A67278002807F1CC1
:101B00002780812707804DF20C67278002807F1C89
:101B10002780A62707804DF20E67278002807F1C52
:101B20002780E52707804DF21067278005807F1CFE
:101B30002780132707804DF21267278005807F1CBE
:101B40002780542707804DF21467278005807F1C6B
:101B50002780822707804DF21667278005807F1C2B
:101B60002780CA2707804DF21867278001807F1CD5
:101B7000278002807F1C278001807F1C27800580B2
:101B80007F1C278001807F1C278006807E1C26808A
:101B90000180761C268067260680FE1C2680018038
:101BA000761C2680842606807E1D26800180761C79
:101BB0002680A4260680FE1D26800180761C2680B5
:101BC000A0F800A0761C26800180761C2680A0F854
:101BD0000090761C26800180761C2680A0F800B03C
:101BE000761C26800180761C2680F22606804DF227
:101BF0002C6626800180761C2680FE2606804DF20B
:101C00002E6626800380761C2680A0F800C0761CF5
:101C100026800380761C2680332606804DF23266AD
:101C200026800380761C2680A0F800804FF4704642
:101C300026804FF0550CA0F800C0761C2680AA26FE
:101C400006804FF202062680522606804FF20306D7
:101C50002680082606804FF20406268002804FF474
:101C600031462680CC2606804BF201162680028063
:101C70004FF436462680052606804FF437462680E8
:101C8000702606804BF20177278006804FF4384695
:101C900026800580751C258003806D1C25800380AF
:101CA0006D1C258003804FF43C43238001805B1C26
:101CB000238002805B1C238002804FF449432380F1
:101CC000D02303804CF6011323800180591C21800E
:101CD00050210180991C218050210180D91C218034
:101CE000502101804FF45451218002804FF46851FB
:101CF0002180A0F800C04FF488502080782000F0A8
:101D0000DFFA4FF424502080BDE8F05F4FF6FF70FB
:101D1000FFF7B4B9014AD08011817047000000205C
:101D200002490880000C4880704700000000002035
:101D3000FEB50024009401946D460A22029408E046
:101D4000B0FBF2F302FB1303B0FBF2F02B55641C63
:101D5000E4B20028F4D10E4604E00021094800F066
:101D600047F9761EA642F8DC641E0AD4054E285DAB
:101D7000002106EB001000F5807000F039F9641EB8
:101D8000F5D5FEBD1C2500082DE9F0410F4E044697
:101D90004FF0000835790E4F0DE00A2810D0A0F161
:101DA00020015F2906D207EB00100021A0F500708A
:101DB00000F01EF9641C20780028EED1BDE8F08107
:101DC000308828443080A6F80280F3E70000002025
:101DD0001C25000870B5104B4FF4F07500244FF42B
:101DE0001676197912E05A8802EB510292B25A80A3
:101DF00002EB5102AA4209D91A880A4492B21A8007
:101E00000A445C80B24201D9002070BD401EC0B2BD
:101E1000E9D2012070BD00000000002010B58EB096
:101E20001C216846FEF716FA1C2107A8FEF712FAD5
:101E30001C484FF02041102201601B4941600021E5
:101E40008160C160C0E904128161C1611302016255
:101E5000C0E909139302C0E90B1341638163C163B5
:101E600041640F2009230090CDE901030823CDE947
:101E700003320324CDE9074011230994CDE905314C
:101E80000DF1280C0D9101208CE80D0007AA694680
:101E90000448FFF703F8002801D072B6FEE70EB041
:101EA00010BD0000A81F0020040100A070B586B07E
:101EB00014216846FEF7CEF931480024016841F04C
:101EC00004010160016801F004010591016841F01D
:101ED00020010160016801F020010591016841F0D5
:101EE00080010160016801F080010591016841F005
:101EF00002010160016801F002010591016841F0F1
:101F000040010160016801F040010591016841F064
:101F100010010160016801F010010591016841F0B4
:101F200008010160016801F008010591016841F0B4
:101F3000010101600068134E00F0010005900122CC
:101F400023213046FEF74AFC4FF4005001258DE86E
:101F5000310069460C48FEF759FB0C208DE8310032
:101F600069460A48FEF752FB23200090CDE9015450
:101F7000694630460394FEF749FB06B070BD000089
:101F8000303802400004024000080240001C0240B9
:101F9000FEE7FEE77047704770B5144C4FF42855C4
:101FA0002580060AA51C2E8042F601262680C0B296
:101FB0002880701C2080080A2880B01C2080C8B2AD
:101FC00028804FF42C502080100A288042F60130DF
:101FD0002080D0B2288042F602302080180A288063
:101FE00042F603302080D8B2288070BDFEFF076023
:101FF0002DE9F0470C002649054601F102000E7953
:1020000029D037464A883A44B2F5F07F04D90A8885
:1020100032440A8000224A800A8889469119B1F523
:10202000167F32D8711E11448BB20088791E01448C
:1020300089B2FFF7B1FF16FB07F016494FEAD00847
:102040004FF4305008800020B9F80670B9F80860E5
:1020500001F1020C0FE07708D4E72B5C0022D907CE
:1020600001D0394600E03146ACF800105B08521C44
:10207000082AF4DB401C4045EFDB24B10220BDE818
:10208000F047FFF7A7BE0120F9E7BDE8F0870000A1
:1020900000000020FEFF0760FEF7ACBB30B593B038
:1020A00030216846FEF7D6F814210CA8FEF7D2F8C6
:1020B00020480025016841F080510160006800F06F
:1020C000805011901C48016841F440410160006853
:1020D000022400F44040119001200090000401907F
:1020E0008001CDE90640192008904FF4B470CDE985
:1020F000090404200B906846FEF72CFD08B172B667
:10210000FEE7FEF703FC08B172B6FEE70CA90F204C
:1021100081E831004FF4A0500F904FF480501090A0
:1021200005210CA8FEF72AFC002801D072B6FEE7B4
:1021300013B030BD403802400070004005480168CF
:1021400041F47001016003494FF00060803908607C
:102150007047000088ED00E02DE9F041044600687A
:102160000169E26821F4405111430161A1682069CD
:10217000E26901436069104301432068C26849F283
:102180000C639A430A43C26020684169A26921F442
:10219000407111434161E069192764253226B0F589
:1021A000004F354A354920684FF0000806D0884274
:1021B00001D0904236D1FEF78BFC35E0884201D049
:1021C000904202D1FEF784FC01E0FEF771FC6168E9
:1021D0004A18A0FB070148EB0803FEF703F8014685
:1021E000B0FBF5F00201B1FBF5F06FF018035843B6
:1021F00001EB800006EBC000B0FBF5F000F0F8004A
:1022000002EB4002B1FBF5F0584301EB800006EB16
:10221000C000B0FBF5F000F00700216810448860B2
:10222000BDE8F081FEF744FC01466068830F820040
:10223000A1FB0701FDF7D6FF0146B0FBF5F06FF0FB
:102240001802504301EB800006EB0010B0FBF5F0E4
:1022500000F0F002B1FBF5F002EB0012B1FBF5F07B
:102260006FF01803584301EB800006EB0010B0FB41
:10227000F5F000F00F00D0E700140140001001401D
:10228000FEE70907090E002804DB00F1E02080F8D2
:102290000014704700F00F0000F1E02080F8141DDA
:1022A000704702E008C8121F08C1002AFAD170471F
:1022B0007047002001E001C1121F002AFBD17047C6
:1022C00070B5054600244FF47A7603E0304600F0FE
:1022D00005F8641CAC42F9D370BD000070B54FF036
:1022E000E0260546B469FEF703FC09497269B0FBB4
:1022F000F1F045430021B069A04201D2231A01E068
:10230000131A234419440446A942F4D370BD0000B3
:1023100040420F000EB55D4800263446016800912A
:102320004068B146B0465AA735460190FEF76AFAB2
:10233000FFF7B4FEFFF7BAFD59480021026842F4E6
:10234000800202600068574A00F4800002905648FC
:1023500002604FF4E132C0E901210C22C160C0E902
:1023600004128161C161FEF7DAFD08B172B6FEE7C1
:10237000FFF754FDFEF79EFEFDF7EAFF4B484FF4D2
:10238000FA513A5D02B900248B463A5D8255641CCD
:10239000761C5E45F5D34FF6FF7421464FF4784026
:1023A000FFF7B8FC42A0FFF7EFFC44A0FFF7ECFCFE
:1023B00046A0FFF7E9FC48A0FFF7E6FC21461F20F6
:1023C000FFF7A8FC484EFEF70FFA04460027A0EBE3
:1023D0000800142805D9A046FEF72CFEFEF724FEBF
:1023E0000746F80704D059463048FDF7BFFF0125DE
:1023F0003E480068000106D53C480830016841F0BD
:102400000061016004E0022D02D0012D0DD028E012
:1024100000250098FFF784FC35A0FFF7B5FC019874
:10242000FFF77EFC0321642016E03048B8300068D6
:102430006421C0F5FA5080B24843B0FBFBF01FFAAC
:1024400080FA0098FFF76CFC2EA0FFF79DFC019826
:10245000FFF766FC03215046FFF76AFC2EA0FFF74A
:1024600093FCA4EB0900B0F5FA7F04D97068A1468B
:1024700080F001007060B807A5D5306880F00100D9
:1024800030600848302141609DE700004C3800086A
:1024900068656C6C6F2C20776F7264210A000000F5
:1024A0003038024000100140681F00202800002042
:1024B00044656D6F3920444D410A00005A68656ECD
:1024C0002048616979616E670A000000323032315C
:1024D0002F30352F32370A002D2D4B4559303A53C6
:1024E000746172742D2D0A0080824042046402409F
:1024F00054726173736D69742046696E69736821E3
:102500000000000054726173736D6974696E672E08
:102510002E2E2020000000002500000000000000FA
:1025200000000000000000000000000000000008A3
:1025300008080808080800000808000000482424CB
:102540001200000000000000000000000000004831
:1025500048487E2424247E24242400000000103CCB
:102560005252121C30505052523C101000000022A7
:102570002515150D2A585454522200000000000C55
:102580001212120A76252919916E00000006040421
:1025900002000000000000000000000000402010C9
:1025A000100808080808081010204000000204085D
:1025B000081010101010100808040200000000009D
:1025C00008086B1C1C6B08080000000000000000DD
:1025D00000101010FE10101000000000000000009D
:1025E00000000000000000000604040200000000DB
:1025F000000000007E00000000000000000000005D
:10260000000000000000000006060000000040205E
:10261000202010100808080404020200000000181E
:10262000244242424242424224180000000000106C
:102630001C10101010101010107C00000000003C46
:102640004242424020100804427E00000000003C4C
:102650004242402018204042423C0000000000203E
:10266000303028242422FE2020F800000000007EC4
:102670000202021E22404042221C000000000018FC
:102680002402023A46424242443800000000007EE2
:102690004220201010080808080800000000003C34
:1026A0004242422418244242423C00000000001CE6
:1026B00022424242625C40402418000000000000B8
:1026C00000001818000000001818000000000000AA
:1026D000000000080000000000080808000000409A
:1026E0002010080402040810204000000000000030
:1026F00000007E00007E00000000000000000002DC
:102700000408102040201008040200000000003CD3
:102710004242462010101000181800000000001C53
:10272000225A55555555553A423C000000000008C4
:1027300008181414243C224242E700000000001F45
:102740002222221E22424242221F00000000007C60
:102750004242010101010142221C00000000001F51
:102760002242424242424242221F00000000003FF9
:102770004212121E12120242423F00000000003FAD
:102780004212121E12120202020700000000003C58
:102790002222010101712122221C0000000000E719
:1027A000424242427E42424242E700000000003E76
:1027B0000808080808080808083E00000000007C17
:1027C00010101010101010101010110F00000077D2
:1027D00022120A0E0A1212222277000000000007BD
:1027E0000202020202020202427F000000000077A1
:1027F00036363636362A2A2A2A6B0000000000E3D5
:1028000046464A4A52525262624700000000001C8B
:102810002241414141414141221C00000000003F52
:10282000424242423E020202020700000000001C37
:10283000224141414141414D321C60000000003FB6
:102840004242423E1212222242C700000000007C97
:102850004242020418204042423E00000000007F35
:102860004908080808080808081C0000000000E7DC
:102870004242424242424242423C0000000000E7E3
:102880004242222424141418080800000000006B9F
:102890002A2A2A2A2A36141414140000000000E7F9
:1028A000422424181818242442E70000000000776E
:1028B0002222141408080808081C00000000007EEA
:1028C0002120101008040442423F0000007808084C
:1028D000080808080808080808087800000002042A
:1028E000040408080810102020204040001E10108A
:1028F000101010101010101010101E0000182400DE
:1029000000000000000000000000000000000000C7
:102910000000000000000000000000FF00060800AA
:1029200000000000000000000000000000000000A7
:102930000000001C22302C22326C0000000000003D
:102940000302021A26424242261A0000000000003A
:102950000000003844020202443800000000000079
:102960006040407C4242424262DC000000000000C5
:102970000000003C42427E02423C00000000000099
:102980003048083E08080808083E00000000000023
:102990000000007C22221C023C42423C000000005D
:1029A0000302023A4642424242E700000000000CA5
:1029B0000C00000E08080808083E00000000003067
:1029C00030000038202020202020221E000000009F
:1029D00003020272120A0E122277000000000008A1
:1029E0000E08080808080808083E0000000000005B
:1029F0000000007F9292929292B7000000000000C7
:102A00000000003B4642424242E700000000000056
:102A10000000003C42424242423C000000000000F4
:102A20000000001B26424242261A02070000000056
:102A30000000005864424242645840E00000000038
:102A4000000000774C040404041F00000000000094
:102A50000000007C42023C40423E000000000000BA
:102A60000008083E08080808483000000000000080
:102A7000000000634242424262DC000000000000AD
:102A80000000007722221414080800000000000053
:102A9000000000DB91525A2A2424000000000000AC
:102AA0000000006E241818182476000000000000B2
:102AB000000000E74224241818080806000000005F
:102AC0000000007E22100808447E000000C0202084
:102AD00020202020102020202020C00010101010C6
:102AE000101010101010101010101010000304041B
:102AF000040404040804040404040300045A200029
:102B0000000000000000000000000000000222049D
:102B1000943F88209420923F91209020983F9404E5
:102B200092449128901090228A4184000000FC3F3A
:102B300000020002080208020402FC7F8002400238
:102B40002002100208020602800200010000F81FA5
:102B5000081008100810F81F081008100810F81FB7
:102B60000810081004100410021401081000D01FEF
:102B7000101108110811EC7F0C110A110911C81F5E
:102B800008110801880088004800280080008000A3
:102B9000800080008000800040014001200220026F
:102BA0001004100408080410022001408402840468
:102BB000C47F44046C04D53F45044504C53F440428
:102BC0004404C47F4400A424244914490801080291
:102BD000C83F1800AA088A084A15292208000802D6
:102BE000E87F080208020802080208022002700AB0
:102BF0001E1210121002FF7F1002102250223012FB
:102C0000180C1644104A1051D46008404410881023
:102C100088080004FF7F100488088410F367800090
:102C20008000FE3F800080008000800008000800D7
:102C3000C87F08043F0408021C022C0B8A124A2297
:102C400029220802080208020802080204020402FB
:102C500004027C3E22211211810408040804080A9F
:102C6000080A480A28111811882040400000F81F5F
:102C7000081008100810F81F081208020804C408F9
:102C8000041102603100C000000100020000FE1FBC
:102C900000080004000280018000800080008000A5
:102CA0008000800080008000A00040000000FC0F39
:102CB00004080408140A240A4409440984088408FE
:102CC000440944492452125202600140FC1F800012
:102CD000FE7F8240B92E8000B80E0000FC1F00105D
:102CE0000010F81F00100010FC1F0010F80F08085B
:102CF0000808F80F08080808F80F0000FF7F800098
:102D00008800881F88009400A200C17F800282048E
:102D10008404C47F40046004D73F44044404C43F97
:102D2000440444045404CC7F4400400008000800DC
:102D3000C87F08043F0408040804280418040C048D
:102D40000B040804080408040A05040270008F3B01
:102D500049222A22FF2A1C332A2241223E322A2BD0
:102D6000AA263E222A222A22BE2A22110808100858
:102D70001004FF7F00007C10441244127C124412A5
:102D800044127C1244104410541424084004480493
:102D9000480448044804FF7F4804480448044804A1
:102DA000C807080008000800F83F00000800887FF6
:102DB00088008800BF00883F8C209C20AA20AA2081
:102DC000893F880088008800887F08001004FE3F43
:102DD00010044000FF7F1000F80F14081308F00FD4
:102DE0008000102112491248E10F0000800080008D
:102DF00090049008881084208220000080008000C9
:102E0000FC1F800080008000FF7F0000040204019E
:102E100084084410E43F9F208400C41F240204025D
:102E2000E47F1C0207058208401030602002200267
:102E300020023F7E2002200220023E3E200220028D
:102E4000200220023F7E2002200220020801083FCB
:102E50008420841F1210DF7F08020445C22C1F1A31
:102E60000229C02C184A0709C20A00044000800049
:102E7000FE7F02400120F807000200018000FF7F72
:102E80008000800080008000A0004000000204025A
:102E90000802C83F002200220F220822E87F080211
:102EA0000805280598084810202010400000F00769
:102EB0001004100410041004100410041004100472
:102EC000080408440444044402780100001FFC0084
:102ED000880890048000FF7F90040808FC1F8B681E
:102EE0008808F80F88088808F80F08080402040208
:102EF00004053F0582084A102960BF08880488023B
:102F0000B8018F008A208820083F08000000FC1FBD
:102F100004100410E4132412241224122412241284
:102F2000E41304100410FC1F041000001001100131
:102F30001001887F88404C202C040A0489148824BE
:102F40004824484428440804080508020804882442
:102F50003C2504150204BD3F88208824BF24882412
:102F600088248824280A1811882040400000FC1F6B
:102F700084108410FC1F0400F41F14101410F41F9C
:102F80001410F41F12101210F11F101000003C1E3C
:102F90002412241224123C1E000080088010FF7F9F
:102FA00080004001200210040C1803600800080093
:102FB000843F240422041F040804040402043F0480
:102FC0000204000438040704C27F00000800107FD8
:102FD000FE084404283EFE22222A122A4A2A222AD5
:102FE000122A8A2A4214222411420C4180008000B5
:102FF0008F0F49082904D91F491249124912491251
:10300000EF7F090500058008401030600000FE3F9A
:103010000001000180008000C002A0049008881018
:103020008420822081008000800080008808880839
:103030008408840892089F088808840882085F151D
:10304000421640143822272212218840080408140E
:1030500078244404CC7F5204250A280A1011081150
:103060008420424000001211222221228000800090
:10307000FE3F8000FC1F8000FF7F0000F80F080863
:10308000F80F0808F80F0808080A080480008000F4
:103090008000FC1F841084108410FC1F84108000AA
:1030A000880090006000A001180E07700000FC0F5F
:1030B00000080008000804080408FC0F04000400CD
:1030C0000400042004200420F83F00000800883F8A
:1030D00004102408220C1F120821C4400200BF3F24
:1030E0000204000438040704C27F0000000A001232
:1030F0000002FC7F0402040204227C2244224414C5
:1031000044144448544C2252026181402000200063
:103110002000FF7F100010011021482148112409D0
:103120009402820241042008181006600010803FBB
:103130007E0844088804FE7F42404120FE1F200094
:10314000E00F500888040403C20C38700000FF7FB1
:1031500080008000881088108808840442014001A3
:103160002002200210040808041003600404FC0478
:10317000027C7D125415FF145208FE1420621001C7
:10318000F8004008FC1F8010A8044408100110112A
:1031900008090C078A0169210821083E880080007F
:1031A000FF7F800080008000800080000800080011
:1031B0000800083E7F224422442244224222242244
:1031C000282210222822443E422201000000000052
:1031D000FE3F0000000000000000FC1F0000000097
:1031E000000000000000FF7F000000000008001F3A
:1031F000FC008000800080008000FF7F8000800055
:10320000800080008000800080008000400040003E
:103210004000FE3F2000900088008400FC1F8000DA
:103220009004880884108220A0004000000104025D
:10323000E87F080181084210E23F0820080044129C
:1032400047124412441244522452106280008000FB
:10325000800080108010BE09A005900290028804B2
:103260008808841082608100A00040000000F80FF0
:10327000080808080808080808080808F80F0808D7
:103280000000100410080810042002200000FF01B4
:10329000443F44227C22442244227C22441444148D
:1032A000E4155F084208401440224041000000003D
:1032B00000000000000000000000FF7F0000000090
:1032C00000000000000000000000000000107F3837
:1032D00014177F15551555157F1500153E1500253A
:1032E0007F2508252A45C9148A2C44240800083F54
:1032F0003C242424122A7D115408540A7C3E54098B
:1033000054087C7F5408520842086108400080003D
:10331000FF7F2002280A2812242222220000800097
:103320001011122112481248E10F00001001100183
:103330001021081108090C050C030A018901480134
:103340002801084108410841087E0800400020008B
:10335000F80F0808F80F0808F84F08280818FE0F9B
:10336000000A0009C0083808070A00040802080219
:1033700004027E3E42214221C22042227E24422477
:103380004220422042207E2042140008041284126F
:103390008412DF7F95129512951E95009F7F05047C
:1033A000C47F140E1C159724624400048000880812
:1033B00088104400FC3F40002000E01F5010901097
:1033C0008808080504020205C018386000020202DD
:1033D000E43F0402C01F0012E87F0812C41F070167
:1033E000E47F8410C40904068419602010042002BC
:1033F000FE3F80008000FC1F80008000FF7F800077
:103400008000FE3F40012002180C07704000800041
:10341000FF7F0000280AC809280AF80F8000FE3F35
:1034200042202222F2272224022802100020FE201D
:10343000822082248224FE2408240824FF24882455
:103440008824882484208420522821101004100409
:103450007E3F100C381654259344100490048808BD
:1034600088084405200210040C180360000EF801BF
:1034700080008000FF7FA00290048C18FB6F08087A
:103480000808F80F08080808F80F080800140024B6
:10349000FC7F0404F4250424F41514191449F2558E
:1034A00002620141800012211248E14F0002000235
:1034B0003E020002803F00227F22042204220421D7
:1034C00012212221BF20A2204014200840002208FF
:1034D000F4091409F0791025F7234428FC2B241053
:1034E000E41114294C4584420A00F17F0000003F9A
:1034F0003E2122212221223F3E2122212221223F40
:103500003E21222180208020402820100002040239
:1035100008020802000200020F3E08020802080228
:103520000802280218020802F07F000008000800C4
:10353000C83F081018082A040A020A010901880075
:103540008800484048404840887F08000802080436
:103550000404DE7F12001211922052401E1112113B
:10356000120A1204120A1E11922060400002020286
:103570000402F47F00020102E23F0A000800C41FB7
:103580004710441044104410C41F40104000400035
:103590002000FF7F1000100208020C02EA3F09021F
:1035A0000802080208020802F87F08008000841060
:1035B0008810900890048000FF7F200220022002E3
:1035C0002002104210420842047C03000000FF7FEA
:1035D00040004000400040004002400440084010CD
:1035E000401040004000400040004000400080008B
:1035F000FE7F02400120F80F00000000FE3F200285
:1036000020022002102210220822063C0808080985
:103610000409041192109F204820A45F02111F1179
:103620000211001198108710421420080000FF03B7
:10363000000200220012000A0006000A0012002206
:103640000004000400480050006000400000C01F5B
:103650005E105210D21F5E105210D21F5E22521204
:10366000520C52045E085211C06040000000C43F7A
:10367000482048204120C23F522050204820C83FC7
:103680004720442044204420C43F40200402FC7EC4
:103690001209A1108000FC1F80008000FF7F000045
:1036A0000004FE3F10042004200500021002100256
:1036B0000802C43F12021002E87F0C080A08E97FE2
:1036C0000808480888088808080A08041004100434
:1036D000FF7F100490044001200210040C18F367CF
:1036E00010041004101510121010E01F40004010BC
:1036F000FC0B40044002FF7F8000400030081807A8
:10370000F400121011101010E01F000000027F04DE
:10371000947F14007F115511D52A55447500430438
:10372000C17F7F04410441047F0441048810A81232
:10373000A412A20AE97B08240428F62B0528E42910
:10374000242924152413242914280C4400389F0705
:103750000404C47F1F04953F9535952E9B3F1104AB
:10376000913F1F04D17F11009F2A51548000841083
:1037700084108410FC1F40004000E00F100828084F
:10378000440480020001C000380007000000FC1F54
:10379000841084108410FC1F841084108410FC1F7B
:1037A0008410841084108210821401080000FC0F21
:1037B0004000400040004000FE3F20012001200169
:1037C0001001100108210421023E01008800880038
:1037D000883F5800AA1F8A108A128914E87F88102F
:1037E00048124814C83F0810080A0804082010208E
:1037F0000020FF251024882484247E242024902463
:1038000048242424332048208428031140008000C9
:103810000001F80080208010BE09A005A0029002DF
:103820009004880884108360A0004000000200011A
:10383000BF3F88248824843FBC24A622A63F2509B4
:10384000A408E47F3C0824080408000840000000A5
:1038500050000000000610160006101600000000C0
:103860000000000001020304060708090000000030
:103870000102030494380008000000202800000022
:10388000A2220008BC3800082800002030240000D4
:10389000B22200080000000010000000FFFF00003E
:1038A0000000000000000000000000000100000017
:0C38B00010000000000000000024F400E4
:04000005080001AD41
:00000001FF
